{
  "contractName": "vendingMachine",
  "abi": [
    {
      "inputs": [],
      "payable": false,
      "stateMutability": "nonpayable",
      "type": "constructor"
    },
    {
      "anonymous": false,
      "inputs": [
        {
          "indexed": false,
          "internalType": "uint256",
          "name": "_skuCount",
          "type": "uint256"
        },
        {
          "indexed": false,
          "internalType": "string",
          "name": "_productName",
          "type": "string"
        }
      ],
      "name": "itemAdded",
      "type": "event"
    },
    {
      "constant": true,
      "inputs": [],
      "name": "owner",
      "outputs": [
        {
          "internalType": "address payable",
          "name": "",
          "type": "address"
        }
      ],
      "payable": false,
      "stateMutability": "view",
      "type": "function"
    },
    {
      "constant": true,
      "inputs": [],
      "name": "skuCount",
      "outputs": [
        {
          "internalType": "uint256",
          "name": "",
          "type": "uint256"
        }
      ],
      "payable": false,
      "stateMutability": "view",
      "type": "function"
    },
    {
      "constant": false,
      "inputs": [
        {
          "internalType": "string",
          "name": "_name",
          "type": "string"
        },
        {
          "internalType": "uint256",
          "name": "_price",
          "type": "uint256"
        },
        {
          "internalType": "uint256",
          "name": "_inventory",
          "type": "uint256"
        }
      ],
      "name": "addItem",
      "outputs": [
        {
          "internalType": "bool",
          "name": "",
          "type": "bool"
        }
      ],
      "payable": false,
      "stateMutability": "nonpayable",
      "type": "function"
    },
    {
      "constant": true,
      "inputs": [
        {
          "internalType": "uint256",
          "name": "index",
          "type": "uint256"
        }
      ],
      "name": "getItems",
      "outputs": [
        {
          "internalType": "uint256",
          "name": "",
          "type": "uint256"
        }
      ],
      "payable": false,
      "stateMutability": "view",
      "type": "function"
    }
  ],
  "bytecode": "0x608060405234801561001057600080fd5b50336000806101000a81548173ffffffffffffffffffffffffffffffffffffffff021916908373ffffffffffffffffffffffffffffffffffffffff16021790555060006001819055506104eb806100686000396000f3fe608060405234801561001057600080fd5b506004361061004c5760003560e01c80632270247314610051578063796c5e941461006f5780638da5cb5b146100b1578063d5e6c333146100fb575b600080fd5b6100596101e2565b6040518082815260200191505060405180910390f35b61009b6004803603602081101561008557600080fd5b81019080803590602001909291905050506101e8565b6040518082815260200191505060405180910390f35b6100b9610208565b604051808273ffffffffffffffffffffffffffffffffffffffff1673ffffffffffffffffffffffffffffffffffffffff16815260200191505060405180910390f35b6101c86004803603606081101561011157600080fd5b810190808035906020019064010000000081111561012e57600080fd5b82018360208201111561014057600080fd5b8035906020019184600183028401116401000000008311171561016257600080fd5b91908080601f016020809104026020016040519081016040528093929190818152602001838380828437600081840152601f19601f820116905080830192505050505050509192919290803590602001909291908035906020019092919050505061022d565b604051808215151515815260200191505060405180910390f35b60015481565b600060026000838152602001908152602001600020600201549050919050565b6000809054906101000a900473ffffffffffffffffffffffffffffffffffffffff1681565b600081600181101561023e57600080fd5b6040518060c00160405280868152602001600180540181526020018581526020018481526020016000600281111561027257fe5b81526020013373ffffffffffffffffffffffffffffffffffffffff1681525060026000600154815260200190815260200160002060008201518160000190805190602001906102c2929190610411565b5060208201518160010155604082015181600201556060820151816003015560808201518160040160006101000a81548160ff0219169083600281111561030557fe5b021790555060a08201518160040160016101000a81548173ffffffffffffffffffffffffffffffffffffffff021916908373ffffffffffffffffffffffffffffffffffffffff16021790555090505060018054016001819055507f59275326eb289eacc2b4b8d401592bca6a8abc95856e96d2733867a4bd1ac6f1600154866040518083815260200180602001828103825283818151815260200191508051906020019080838360005b838110156103ca5780820151818401526020810190506103af565b50505050905090810190601f1680156103f75780820380516001836020036101000a031916815260200191505b50935050505060405180910390a160019150509392505050565b828054600181600116156101000203166002900490600052602060002090601f016020900481019282601f1061045257805160ff1916838001178555610480565b82800160010185558215610480579182015b8281111561047f578251825591602001919060010190610464565b5b50905061048d9190610491565b5090565b6104b391905b808211156104af576000816000905550600101610497565b5090565b9056fea265627a7a72315820c51e94215e628218dd969c59f518f085c7bec9879ecd8198c8cd6e7438460ea364736f6c63430005100032",
  "source": "// SPDX-License-Identifier: MIT\npragma solidity >=0.5.16 <0.9.0;\n\n// import \"@openzeppelin/contracts/token/ERC721/ERC721.sol\";\ncontract vendingMachine {\n\n\n\n\n\n  enum State {\n    Available, LowSupply, SoldOut\n  }\n//array of addresses of no specified length\n  address payable public owner; \n\n// variable that stores number of items for sale in vending machine\n  uint public skuCount; \n\n// mapping of items for sale. So each skuID corresponds to a dictionary\n  mapping (uint => Item) items; \n\n  struct Item {\n    string name;\n    uint skuID;\n    uint price; \n    uint inventory; \n    State state;\n    address payable seller;\n  }\n\n\n  // Events\nevent itemAdded(uint _skuCount, string _productName);\n\n  // Modifiers\nmodifier enoughItems(uint _inventory) {\n  require(_inventory>=1);\n  _;\n}\n  constructor() public {  // constructor initialises once. \n    owner = msg.sender; // the person who deployed constract is the owner\n    skuCount = 0; \n  }\n\n  // Functions\n\n  function addItem(string memory _name, uint _price, uint _inventory) \n  public enoughItems(_inventory) returns (bool) {\n    // This function is where sellers can add items to the vending machine\n    // This would increment the SKU count by 1\n    // Emits an event\n    // returns true\n    items[skuCount] = Item({\n      name: _name,\n      skuID: skuCount+1,\n      price: _price,\n      inventory: _inventory,\n      state: State.Available,\n      seller: msg.sender\n    });\n\n    skuCount = skuCount + 1;\n    emit itemAdded(skuCount, _name);\n    return true;  \n\n  }\n\n  function getItems(uint index) public view returns (uint) {\n    return (items[index].price);\n  }\n\n\n  // function removeItem(uint _skuId) external returns (uint[]) {\n  //   require(_skuId < array.length);\n  // }\n\n\n\n\n\n\n\n\n\n\n\n\n\n\n\n\n}\n",
  "sourcePath": "/mnt/c/Users/Mason-PC/Documents/GitHub/blockchain-developer-final-project/contracts/vendingMachine.sol",
  "compiler": {
    "name": "solc",
    "version": "0.5.16+commit.9c3226ce.Emscripten.clang"
  },
  "schemaVersion": "3.4.3",
  "updatedAt": "2021-10-14T19:17:23.959Z",
  "devdoc": {
    "methods": {}
  },
  "userdoc": {
    "methods": {}
  }
}