{
  "contractName": "voting",
  "abi": [
    {
      "inputs": [
        {
          "internalType": "string[]",
          "name": "proposalNames",
          "type": "string[]"
        }
      ],
      "stateMutability": "nonpayable",
      "type": "constructor"
    },
    {
      "inputs": [],
      "name": "chairperson",
      "outputs": [
        {
          "internalType": "address",
          "name": "",
          "type": "address"
        }
      ],
      "stateMutability": "view",
      "type": "function"
    },
    {
      "inputs": [
        {
          "internalType": "uint256",
          "name": "",
          "type": "uint256"
        }
      ],
      "name": "proposals",
      "outputs": [
        {
          "internalType": "string",
          "name": "name",
          "type": "string"
        },
        {
          "internalType": "uint256",
          "name": "voteCount",
          "type": "uint256"
        }
      ],
      "stateMutability": "view",
      "type": "function"
    },
    {
      "inputs": [],
      "name": "state",
      "outputs": [
        {
          "internalType": "enum voting.State",
          "name": "",
          "type": "uint8"
        }
      ],
      "stateMutability": "view",
      "type": "function"
    },
    {
      "inputs": [],
      "name": "totalVotersRegistered",
      "outputs": [
        {
          "internalType": "uint256",
          "name": "",
          "type": "uint256"
        }
      ],
      "stateMutability": "view",
      "type": "function"
    },
    {
      "inputs": [],
      "name": "totalVotes",
      "outputs": [
        {
          "internalType": "uint256",
          "name": "",
          "type": "uint256"
        }
      ],
      "stateMutability": "view",
      "type": "function"
    },
    {
      "inputs": [
        {
          "internalType": "address",
          "name": "",
          "type": "address"
        }
      ],
      "name": "voterRegister",
      "outputs": [
        {
          "internalType": "uint256",
          "name": "vote",
          "type": "uint256"
        },
        {
          "internalType": "string",
          "name": "message",
          "type": "string"
        },
        {
          "internalType": "uint256",
          "name": "timestamp",
          "type": "uint256"
        },
        {
          "internalType": "bool",
          "name": "voted",
          "type": "bool"
        },
        {
          "internalType": "enum voting.voterStatus",
          "name": "status",
          "type": "uint8"
        }
      ],
      "stateMutability": "view",
      "type": "function"
    },
    {
      "inputs": [
        {
          "internalType": "address",
          "name": "_voterAddress",
          "type": "address"
        }
      ],
      "name": "addVoter",
      "outputs": [],
      "stateMutability": "nonpayable",
      "type": "function"
    },
    {
      "inputs": [],
      "name": "startVote",
      "outputs": [],
      "stateMutability": "nonpayable",
      "type": "function"
    },
    {
      "inputs": [],
      "name": "endVote",
      "outputs": [],
      "stateMutability": "nonpayable",
      "type": "function"
    },
    {
      "inputs": [
        {
          "internalType": "string",
          "name": "_message",
          "type": "string"
        },
        {
          "internalType": "uint256",
          "name": "proposal",
          "type": "uint256"
        }
      ],
      "name": "vote",
      "outputs": [],
      "stateMutability": "nonpayable",
      "type": "function"
    },
    {
      "inputs": [],
      "name": "winningProposal",
      "outputs": [
        {
          "internalType": "uint256",
          "name": "winningProposal_",
          "type": "uint256"
        }
      ],
      "stateMutability": "view",
      "type": "function"
    },
    {
      "inputs": [],
      "name": "winnerName",
      "outputs": [
        {
          "internalType": "string",
          "name": "winnerName_",
          "type": "string"
        }
      ],
      "stateMutability": "view",
      "type": "function"
    },
    {
      "inputs": [],
      "name": "getTotalVotes",
      "outputs": [
        {
          "internalType": "uint256",
          "name": "",
          "type": "uint256"
        }
      ],
      "stateMutability": "view",
      "type": "function"
    },
    {
      "inputs": [
        {
          "internalType": "uint256",
          "name": "_index",
          "type": "uint256"
        }
      ],
      "name": "totalVotesFor",
      "outputs": [
        {
          "internalType": "uint256",
          "name": "",
          "type": "uint256"
        }
      ],
      "stateMutability": "view",
      "type": "function"
    }
  ],
  "bytecode": "0x60806040523480156200001157600080fd5b5060405162001c5c38038062001c5c833981810160405281019062000037919062000356565b33600260006101000a81548173ffffffffffffffffffffffffffffffffffffffff021916908373ffffffffffffffffffffffffffffffffffffffff16021790555060005b8151811015620001485760076040518060400160405280848481518110620000cc577f4e487b7100000000000000000000000000000000000000000000000000000000600052603260045260246000fd5b6020026020010151815260200160008152509080600181540180825580915050600190039060005260206000209060020201600090919091909150600082015181600001908051906020019062000125929190620001a2565b5060208201518160010155505080806200013f90620004a7565b9150506200007b565b506000600860006101000a81548160ff0219169083600281111562000196577f4e487b7100000000000000000000000000000000000000000000000000000000600052602160045260246000fd5b02179055505062000582565b828054620001b09062000471565b90600052602060002090601f016020900481019282620001d4576000855562000220565b82601f10620001ef57805160ff191683800117855562000220565b8280016001018555821562000220579182015b828111156200021f57825182559160200191906001019062000202565b5b5090506200022f919062000233565b5090565b5b808211156200024e57600081600090555060010162000234565b5090565b6000620002696200026384620003cf565b6200039b565b9050808382526020820190508260005b85811015620002ad578151850162000292888262000329565b84526020840193506020830192505060018101905062000279565b5050509392505050565b6000620002ce620002c884620003fe565b6200039b565b905082815260208101848484011115620002e757600080fd5b620002f48482856200043b565b509392505050565b600082601f8301126200030e57600080fd5b81516200032084826020860162000252565b91505092915050565b600082601f8301126200033b57600080fd5b81516200034d848260208601620002b7565b91505092915050565b6000602082840312156200036957600080fd5b600082015167ffffffffffffffff8111156200038457600080fd5b6200039284828501620002fc565b91505092915050565b6000604051905081810181811067ffffffffffffffff82111715620003c557620003c462000553565b5b8060405250919050565b600067ffffffffffffffff821115620003ed57620003ec62000553565b5b602082029050602081019050919050565b600067ffffffffffffffff8211156200041c576200041b62000553565b5b601f19601f8301169050602081019050919050565b6000819050919050565b60005b838110156200045b5780820151818401526020810190506200043e565b838111156200046b576000848401525b50505050565b600060028204905060018216806200048a57607f821691505b60208210811415620004a157620004a062000524565b5b50919050565b6000620004b48262000431565b91507fffffffffffffffffffffffffffffffffffffffffffffffffffffffffffffffff821415620004ea57620004e9620004f5565b5b600182019050919050565b7f4e487b7100000000000000000000000000000000000000000000000000000000600052601160045260246000fd5b7f4e487b7100000000000000000000000000000000000000000000000000000000600052602260045260246000fd5b7f4e487b7100000000000000000000000000000000000000000000000000000000600052604160045260246000fd5b6116ca80620005926000396000f3fe608060405234801561001057600080fd5b50600436106100ea5760003560e01c8063a805f1ca1161008c578063c19d93fb11610066578063c19d93fb1461022c578063d3b3f37e1461024a578063e2ba53f014610268578063f4ab9adf14610286576100ea565b8063a805f1ca146101be578063af154087146101ee578063b922394614610222576100ea565b80634c0a6af0116100c85780634c0a6af01461015c578063609ff1bd146101665780639a0e7d6614610184578063a6385803146101a2576100ea565b8063013cf08b146100ef5780630d15fd77146101205780632e4176cf1461013e575b600080fd5b61010960048036038101906101049190611145565b6102a2565b60405161011792919061128a565b60405180910390f35b61012861035e565b60405161013591906112da565b60405180910390f35b610146610364565b6040516101539190611232565b60405180910390f35b61016461038a565b005b61016e6104c5565b60405161017b91906112da565b60405180910390f35b61018c610623565b60405161019991906112da565b60405180910390f35b6101bc60048036038101906101b791906110f1565b61062c565b005b6101d860048036038101906101d39190611145565b6108b5565b6040516101e591906112da565b60405180910390f35b610208600480360381019061020391906110c8565b61090a565b6040516102199594939291906112f5565b60405180910390f35b61022a6109e2565b005b610234610b1d565b604051610241919061124d565b60405180910390f35b610252610b30565b60405161025f91906112da565b60405180910390f35b610270610b36565b60405161027d9190611268565b60405180910390f35b6102a0600480360381019061029b91906110c8565b610ca6565b005b600781815481106102b257600080fd5b90600052602060002090600202016000915090508060000180546102d5906114f6565b80601f0160208091040260200160405190810160405280929190818152602001828054610301906114f6565b801561034e5780601f106103235761010080835404028352916020019161034e565b820191906000526020600020905b81548152906001019060200180831161033157829003601f168201915b5050505050908060010154905082565b60005481565b600260009054906101000a900473ffffffffffffffffffffffffffffffffffffffff1681565b600260009054906101000a900473ffffffffffffffffffffffffffffffffffffffff1673ffffffffffffffffffffffffffffffffffffffff163373ffffffffffffffffffffffffffffffffffffffff16146103e457600080fd5b600080600281111561041f577f4e487b7100000000000000000000000000000000000000000000000000000000600052602160045260246000fd5b600860009054906101000a900460ff166002811115610467577f4e487b7100000000000000000000000000000000000000000000000000000000600052602160045260246000fd5b1461047157600080fd5b6001600860006101000a81548160ff021916908360028111156104bd577f4e487b7100000000000000000000000000000000000000000000000000000000600052602160045260246000fd5b021790555050565b60006002806002811115610502577f4e487b7100000000000000000000000000000000000000000000000000000000600052602160045260246000fd5b600860009054906101000a900460ff16600281111561054a577f4e487b7100000000000000000000000000000000000000000000000000000000600052602160045260246000fd5b1461055457600080fd5b6000805b60078054905081101561061d5781600782815481106105a0577f4e487b7100000000000000000000000000000000000000000000000000000000600052603260045260246000fd5b906000526020600020906002020160010154111561060a57600781815481106105f2577f4e487b7100000000000000000000000000000000000000000000000000000000600052603260045260246000fd5b90600052602060002090600202016001015491508093505b808061061590611528565b915050610558565b50505090565b60008054905090565b600260009054906101000a900473ffffffffffffffffffffffffffffffffffffffff1673ffffffffffffffffffffffffffffffffffffffff163373ffffffffffffffffffffffffffffffffffffffff16141561068757600080fd5b60018060028111156106c2577f4e487b7100000000000000000000000000000000000000000000000000000000600052602160045260246000fd5b600860009054906101000a900460ff16600281111561070a577f4e487b7100000000000000000000000000000000000000000000000000000000600052602160045260246000fd5b1461071457600080fd5b60001515600660003373ffffffffffffffffffffffffffffffffffffffff1673ffffffffffffffffffffffffffffffffffffffff16815260200190815260200160002060030160009054906101000a900460ff161515146107aa576040517f08c379a00000000000000000000000000000000000000000000000000000000081526004016107a1906112ba565b60405180910390fd5b6000808154809291906107bc90611528565b91905055506000600660003373ffffffffffffffffffffffffffffffffffffffff1673ffffffffffffffffffffffffffffffffffffffff168152602001908152602001600020905082816000018190555083816001019080519060200190610825929190610f2a565b5060018160030160006101000a81548160ff021916908315150217905550428160020181905550600160078481548110610888577f4e487b7100000000000000000000000000000000000000000000000000000000600052603260045260246000fd5b906000526020600020906002020160010160008282546108a891906113cc565b9250508190555050505050565b6000600782815481106108f1577f4e487b7100000000000000000000000000000000000000000000000000000000600052603260045260246000fd5b9060005260206000209060020201600101549050919050565b6006602052806000526040600020600091509050806000015490806001018054610933906114f6565b80601f016020809104026020016040519081016040528092919081815260200182805461095f906114f6565b80156109ac5780601f10610981576101008083540402835291602001916109ac565b820191906000526020600020905b81548152906001019060200180831161098f57829003601f168201915b5050505050908060020154908060030160009054906101000a900460ff16908060030160019054906101000a900460ff16905085565b600260009054906101000a900473ffffffffffffffffffffffffffffffffffffffff1673ffffffffffffffffffffffffffffffffffffffff163373ffffffffffffffffffffffffffffffffffffffff1614610a3c57600080fd5b6001806002811115610a77577f4e487b7100000000000000000000000000000000000000000000000000000000600052602160045260246000fd5b600860009054906101000a900460ff166002811115610abf577f4e487b7100000000000000000000000000000000000000000000000000000000600052602160045260246000fd5b14610ac957600080fd5b6002600860006101000a81548160ff02191690836002811115610b15577f4e487b7100000000000000000000000000000000000000000000000000000000600052602160045260246000fd5b021790555050565b600860009054906101000a900460ff1681565b60015481565b60606002806002811115610b73577f4e487b7100000000000000000000000000000000000000000000000000000000600052602160045260246000fd5b600860009054906101000a900460ff166002811115610bbb577f4e487b7100000000000000000000000000000000000000000000000000000000600052602160045260246000fd5b14610bc557600080fd5b6007610bcf6104c5565b81548110610c06577f4e487b7100000000000000000000000000000000000000000000000000000000600052603260045260246000fd5b90600052602060002090600202016000018054610c22906114f6565b80601f0160208091040260200160405190810160405280929190818152602001828054610c4e906114f6565b8015610c9b5780601f10610c7057610100808354040283529160200191610c9b565b820191906000526020600020905b815481529060010190602001808311610c7e57829003601f168201915b505050505091505090565b600260009054906101000a900473ffffffffffffffffffffffffffffffffffffffff1673ffffffffffffffffffffffffffffffffffffffff163373ffffffffffffffffffffffffffffffffffffffff1614610d0057600080fd5b6000806002811115610d3b577f4e487b7100000000000000000000000000000000000000000000000000000000600052602160045260246000fd5b600860009054906101000a900460ff166002811115610d83577f4e487b7100000000000000000000000000000000000000000000000000000000600052602160045260246000fd5b14610d8d57600080fd5b610d95610fb0565b6000816060019015159081151581525050600181608001906001811115610de5577f4e487b7100000000000000000000000000000000000000000000000000000000600052602160045260246000fd5b90816001811115610e1f577f4e487b7100000000000000000000000000000000000000000000000000000000600052602160045260246000fd5b8152505080600660008573ffffffffffffffffffffffffffffffffffffffff1673ffffffffffffffffffffffffffffffffffffffff168152602001908152602001600020600082015181600001556020820151816001019080519060200190610e89929190610f2a565b506040820151816002015560608201518160030160006101000a81548160ff02191690831515021790555060808201518160030160016101000a81548160ff02191690836001811115610f05577f4e487b7100000000000000000000000000000000000000000000000000000000600052602160045260246000fd5b021790555090505060016000815480929190610f2090611528565b9190505550505050565b828054610f36906114f6565b90600052602060002090601f016020900481019282610f585760008555610f9f565b82601f10610f7157805160ff1916838001178555610f9f565b82800160010185558215610f9f579182015b82811115610f9e578251825591602001919060010190610f83565b5b509050610fac9190611019565b5090565b6040518060a0016040528060008152602001606081526020016000815260200160001515815260200160006001811115611013577f4e487b7100000000000000000000000000000000000000000000000000000000600052602160045260246000fd5b81525090565b5b8082111561103257600081600090555060010161101a565b5090565b600061104961104484611380565b61134f565b90508281526020810184848401111561106157600080fd5b61106c8482856114b4565b509392505050565b60008135905061108381611666565b92915050565b600082601f83011261109a57600080fd5b81356110aa848260208601611036565b91505092915050565b6000813590506110c28161167d565b92915050565b6000602082840312156110da57600080fd5b60006110e884828501611074565b91505092915050565b6000806040838503121561110457600080fd5b600083013567ffffffffffffffff81111561111e57600080fd5b61112a85828601611089565b925050602061113b858286016110b3565b9150509250929050565b60006020828403121561115757600080fd5b6000611165848285016110b3565b91505092915050565b61117781611422565b82525050565b61118681611434565b82525050565b61119581611490565b82525050565b6111a4816114a2565b82525050565b60006111b5826113b0565b6111bf81856113bb565b93506111cf8185602086016114c3565b6111d88161162d565b840191505092915050565b60006111f0600d836113bb565b91507f416c726561647920566f746564000000000000000000000000000000000000006000830152602082019050919050565b61122c81611486565b82525050565b6000602082019050611247600083018461116e565b92915050565b6000602082019050611262600083018461118c565b92915050565b6000602082019050818103600083015261128281846111aa565b905092915050565b600060408201905081810360008301526112a481856111aa565b90506112b36020830184611223565b9392505050565b600060208201905081810360008301526112d3816111e3565b9050919050565b60006020820190506112ef6000830184611223565b92915050565b600060a08201905061130a6000830188611223565b818103602083015261131c81876111aa565b905061132b6040830186611223565b611338606083018561117d565b611345608083018461119b565b9695505050505050565b6000604051905081810181811067ffffffffffffffff82111715611376576113756115fe565b5b8060405250919050565b600067ffffffffffffffff82111561139b5761139a6115fe565b5b601f19601f8301169050602081019050919050565b600081519050919050565b600082825260208201905092915050565b60006113d782611486565b91506113e283611486565b9250827fffffffffffffffffffffffffffffffffffffffffffffffffffffffffffffffff0382111561141757611416611571565b5b828201905092915050565b600061142d82611466565b9050919050565b60008115159050919050565b600081905061144e8261163e565b919050565b600081905061146182611652565b919050565b600073ffffffffffffffffffffffffffffffffffffffff82169050919050565b6000819050919050565b600061149b82611440565b9050919050565b60006114ad82611453565b9050919050565b82818337600083830152505050565b60005b838110156114e15780820151818401526020810190506114c6565b838111156114f0576000848401525b50505050565b6000600282049050600182168061150e57607f821691505b60208210811415611522576115216115cf565b5b50919050565b600061153382611486565b91507fffffffffffffffffffffffffffffffffffffffffffffffffffffffffffffffff82141561156657611565611571565b5b600182019050919050565b7f4e487b7100000000000000000000000000000000000000000000000000000000600052601160045260246000fd5b7f4e487b7100000000000000000000000000000000000000000000000000000000600052602160045260246000fd5b7f4e487b7100000000000000000000000000000000000000000000000000000000600052602260045260246000fd5b7f4e487b7100000000000000000000000000000000000000000000000000000000600052604160045260246000fd5b6000601f19601f8301169050919050565b6003811061164f5761164e6115a0565b5b50565b60028110611663576116626115a0565b5b50565b61166f81611422565b811461167a57600080fd5b50565b61168681611486565b811461169157600080fd5b5056fea2646970667358221220f763d2c6297d488709f1687aff890c6ada2bfbf0815b112bec08f5f5b4890f4c64736f6c63430008000033",
  "immutableReferences": {},
  "source": "// SPDX-License-Identifier: MIT\npragma solidity >=0.5.16 <0.9.0;\n\npragma experimental ABIEncoderV2;\n\nimport \"@openzeppelin/contracts/access/AccessControl.sol\";\n// import \"@openzeppelin/contracts/security/ReentrancyGuard.sol\";\n\n\ncontract voting {\n  // State variables\n  uint256 public totalVotes; // total votes received\n  uint public totalVotersRegistered; // amount of people registered\n  address public chairperson;  // address of the contract deployer is chairperson\n  \n  uint totalTokens; // Available tokens for this election\n  uint balanceTokens; // Total tokens still available for purchase\n  uint tokenPrice; //Price per token \n  \n  mapping (address => Voter) public voterRegister; // mapping of voters \n    \n    struct Voter {\n    uint vote; // the index of the thing voted for\n    // uint voteNumber; // number of votes that voter has given\n    string message; // message of the voter\n    uint timestamp; // timetamp of the vote\n    bool voted; // whether the voter has voted\n    voterStatus status; //whether the voter is verified\n    \n  }\n  \n  Proposal[] public proposals; // initialise an empty array of proposals which are the candidates\n    struct Proposal {\n    string name; // name of the proposal\n    uint voteCount; // number of accumulated votes\n  }\n\n\n    enum voterStatus {unverified, verified} \n  enum State {Created, Voting, Ended} State public state;\n\n\n  // Events\n// event itemAdded(uint _skuCount, string _productName);\n\n  // Modifiers\nmodifier notOwner() {\n  require(msg.sender != chairperson);\n  _;\n}\n\nmodifier onlyOwner() {\n  require(msg.sender == chairperson);\n  _;\n}\n\nmodifier inState(State _state) {\n    require(state == _state);\n    _;\n}\n\n  constructor(string[] memory proposalNames) public {  // constructor initialises once. \n    chairperson = msg.sender; // the person who deployed constract is the owner\n    \n\n    for (uint i = 0 ; i < proposalNames.length; i++) {\n      proposals.push(Proposal({\n        name: proposalNames[i],\n        voteCount:0\n      })); \n      }\n      state = State.Created;\n    }\n  \n\n  // Functions\n  function addVoter(address _voterAddress) public onlyOwner() inState(State.Created) {\n        Voter memory v;\n        v.voted = false;\n        v.status = voterStatus.verified;\n        voterRegister[_voterAddress] = v;\n        \n        totalVotersRegistered++;\n        // emit voterAdded(_voterAddress);\n    }\n    \n    function startVote() public onlyOwner() inState(State.Created) {\n        state = State.Voting;\n    }\n    \n    function endVote() public onlyOwner() inState(State.Voting) {\n        state = State.Ended;\n    }\n\n\n\n  // 1. Create the voting function\n  function vote(string memory _message, uint proposal) public notOwner() inState(State.Voting) {\n    // require(msg.value == 1000000000000000);\n    require(voterRegister[msg.sender].voted == false, \"Already Voted\");\n    totalVotes ++; // increment total vote counts\n    // console.log(\"%s has voted!\", msg.sender); // create a console log indicating a vote event\n    Voter storage sender = voterRegister[msg.sender]; // create new 'Voter' struct named sender within voters mapping\n    sender.vote = proposal; \n    sender.message = _message;\n    sender.voted = true;\n    sender.timestamp = block.timestamp;\n\n    proposals[proposal].voteCount +=1; \n    \n    \n  }\n\n// 2. Create a function for obtaining the index of the winning Proposal\n  function winningProposal() public view inState(State.Ended) returns (uint winningProposal_) {\n    uint winningVoteCount = 0;\n\n    for (uint p=0; p< proposals.length; p++) {\n      if (proposals[p].voteCount > winningVoteCount) {\n        winningVoteCount = proposals[p].voteCount;\n        winningProposal_ = p;\n      }\n    }\n  }\n\n// 3. Create a function for obtaining the string name of the winning proposal\n  function winnerName() public view inState(State.Ended) returns (string memory winnerName_) {\n    winnerName_ = proposals[winningProposal()].name;\n  }\n\n  // 4. Create a function for obtaining the total votes on the proposal\n  function getTotalVotes() public view returns (uint256) {\n    return totalVotes;\n  }\n\n// 5. Create a function for returning the votes a candidate has received so far\nfunction totalVotesFor(uint _index) public view returns (uint256) {\n  return proposals[_index].voteCount;\n}\n\n}\n\n\n\n\n\n\n\n\n  \n\n\n\n\n\n\n\n\n\n\n\n\n\n\n\n\n",
  "sourcePath": "/mnt/c/Users/Mason-PC/Documents/GitHub/blockchain-developer-final-project/contracts/voting.sol",
  "compiler": {
    "name": "solc",
    "version": "0.8.0+commit.c7dfd78e.Emscripten.clang"
  },
  "schemaVersion": "3.4.3",
  "updatedAt": "2021-11-20T05:39:11.151Z",
  "devdoc": {
    "kind": "dev",
    "methods": {},
    "version": 1
  },
  "userdoc": {
    "kind": "user",
    "methods": {},
    "version": 1
  }
}