{
  "contractName": "voting",
  "abi": [
    {
      "inputs": [
        {
          "internalType": "string[]",
          "name": "proposalNames",
          "type": "string[]"
        }
      ],
      "stateMutability": "nonpayable",
      "type": "constructor"
    },
    {
      "anonymous": false,
      "inputs": [
        {
          "indexed": true,
          "internalType": "address",
          "name": "previousOwner",
          "type": "address"
        },
        {
          "indexed": true,
          "internalType": "address",
          "name": "newOwner",
          "type": "address"
        }
      ],
      "name": "OwnershipTransferred",
      "type": "event"
    },
    {
      "inputs": [],
      "name": "chairperson",
      "outputs": [
        {
          "internalType": "address",
          "name": "",
          "type": "address"
        }
      ],
      "stateMutability": "view",
      "type": "function"
    },
    {
      "inputs": [],
      "name": "owner",
      "outputs": [
        {
          "internalType": "address",
          "name": "",
          "type": "address"
        }
      ],
      "stateMutability": "view",
      "type": "function"
    },
    {
      "inputs": [
        {
          "internalType": "uint256",
          "name": "",
          "type": "uint256"
        }
      ],
      "name": "proposals",
      "outputs": [
        {
          "internalType": "string",
          "name": "name",
          "type": "string"
        },
        {
          "internalType": "uint256",
          "name": "voteCount",
          "type": "uint256"
        }
      ],
      "stateMutability": "view",
      "type": "function"
    },
    {
      "inputs": [],
      "name": "renounceOwnership",
      "outputs": [],
      "stateMutability": "nonpayable",
      "type": "function"
    },
    {
      "inputs": [],
      "name": "state",
      "outputs": [
        {
          "internalType": "enum voting.State",
          "name": "",
          "type": "uint8"
        }
      ],
      "stateMutability": "view",
      "type": "function"
    },
    {
      "inputs": [],
      "name": "totalVotersRegistered",
      "outputs": [
        {
          "internalType": "uint256",
          "name": "",
          "type": "uint256"
        }
      ],
      "stateMutability": "view",
      "type": "function"
    },
    {
      "inputs": [],
      "name": "totalVotes",
      "outputs": [
        {
          "internalType": "uint256",
          "name": "",
          "type": "uint256"
        }
      ],
      "stateMutability": "view",
      "type": "function"
    },
    {
      "inputs": [
        {
          "internalType": "address",
          "name": "newOwner",
          "type": "address"
        }
      ],
      "name": "transferOwnership",
      "outputs": [],
      "stateMutability": "nonpayable",
      "type": "function"
    },
    {
      "inputs": [
        {
          "internalType": "address",
          "name": "",
          "type": "address"
        }
      ],
      "name": "voterRegister",
      "outputs": [
        {
          "internalType": "uint256",
          "name": "vote",
          "type": "uint256"
        },
        {
          "internalType": "string",
          "name": "message",
          "type": "string"
        },
        {
          "internalType": "uint256",
          "name": "timestamp",
          "type": "uint256"
        },
        {
          "internalType": "bool",
          "name": "voted",
          "type": "bool"
        },
        {
          "internalType": "enum voting.voterStatus",
          "name": "status",
          "type": "uint8"
        }
      ],
      "stateMutability": "view",
      "type": "function"
    },
    {
      "inputs": [
        {
          "internalType": "address",
          "name": "_voterAddress",
          "type": "address"
        }
      ],
      "name": "addVoter",
      "outputs": [],
      "stateMutability": "nonpayable",
      "type": "function"
    },
    {
      "inputs": [],
      "name": "startVote",
      "outputs": [],
      "stateMutability": "nonpayable",
      "type": "function"
    },
    {
      "inputs": [],
      "name": "endVote",
      "outputs": [],
      "stateMutability": "nonpayable",
      "type": "function"
    },
    {
      "inputs": [
        {
          "internalType": "string",
          "name": "_message",
          "type": "string"
        },
        {
          "internalType": "uint256",
          "name": "proposal",
          "type": "uint256"
        }
      ],
      "name": "vote",
      "outputs": [],
      "stateMutability": "nonpayable",
      "type": "function"
    },
    {
      "inputs": [],
      "name": "winningProposal",
      "outputs": [
        {
          "internalType": "uint256",
          "name": "winningProposal_",
          "type": "uint256"
        }
      ],
      "stateMutability": "view",
      "type": "function"
    },
    {
      "inputs": [],
      "name": "winnerName",
      "outputs": [
        {
          "internalType": "string",
          "name": "winnerName_",
          "type": "string"
        }
      ],
      "stateMutability": "view",
      "type": "function"
    },
    {
      "inputs": [],
      "name": "getTotalVotes",
      "outputs": [
        {
          "internalType": "uint256",
          "name": "",
          "type": "uint256"
        }
      ],
      "stateMutability": "view",
      "type": "function"
    },
    {
      "inputs": [
        {
          "internalType": "uint256",
          "name": "_index",
          "type": "uint256"
        }
      ],
      "name": "totalVotesFor",
      "outputs": [
        {
          "internalType": "uint256",
          "name": "",
          "type": "uint256"
        }
      ],
      "stateMutability": "view",
      "type": "function"
    }
  ],
  "bytecode": "0x60806040523480156200001157600080fd5b506040516200217038038062002170833981810160405281019062000037919062000442565b620000576200004b620001c260201b60201c565b620001ca60201b60201c565b33600360006101000a81548173ffffffffffffffffffffffffffffffffffffffff021916908373ffffffffffffffffffffffffffffffffffffffff16021790555060005b8151811015620001685760086040518060400160405280848481518110620000ec577f4e487b7100000000000000000000000000000000000000000000000000000000600052603260045260246000fd5b60200260200101518152602001600081525090806001815401808255809150506001900390600052602060002090600202016000909190919091506000820151816000019080519060200190620001459291906200028e565b5060208201518160010155505080806200015f9062000593565b9150506200009b565b506000600960006101000a81548160ff02191690836002811115620001b6577f4e487b7100000000000000000000000000000000000000000000000000000000600052602160045260246000fd5b0217905550506200066e565b600033905090565b60008060009054906101000a900473ffffffffffffffffffffffffffffffffffffffff169050816000806101000a81548173ffffffffffffffffffffffffffffffffffffffff021916908373ffffffffffffffffffffffffffffffffffffffff1602179055508173ffffffffffffffffffffffffffffffffffffffff168173ffffffffffffffffffffffffffffffffffffffff167f8be0079c531659141344cd1fd0a4f28419497f9722a3daafe3b4186f6b6457e060405160405180910390a35050565b8280546200029c906200055d565b90600052602060002090601f016020900481019282620002c057600085556200030c565b82601f10620002db57805160ff19168380011785556200030c565b828001600101855582156200030c579182015b828111156200030b578251825591602001919060010190620002ee565b5b5090506200031b91906200031f565b5090565b5b808211156200033a57600081600090555060010162000320565b5090565b6000620003556200034f84620004bb565b62000487565b9050808382526020820190508260005b858110156200039957815185016200037e888262000415565b84526020840193506020830192505060018101905062000365565b5050509392505050565b6000620003ba620003b484620004ea565b62000487565b905082815260208101848484011115620003d357600080fd5b620003e084828562000527565b509392505050565b600082601f830112620003fa57600080fd5b81516200040c8482602086016200033e565b91505092915050565b600082601f8301126200042757600080fd5b815162000439848260208601620003a3565b91505092915050565b6000602082840312156200045557600080fd5b600082015167ffffffffffffffff8111156200047057600080fd5b6200047e84828501620003e8565b91505092915050565b6000604051905081810181811067ffffffffffffffff82111715620004b157620004b06200063f565b5b8060405250919050565b600067ffffffffffffffff821115620004d957620004d86200063f565b5b602082029050602081019050919050565b600067ffffffffffffffff8211156200050857620005076200063f565b5b601f19601f8301169050602081019050919050565b6000819050919050565b60005b83811015620005475780820151818401526020810190506200052a565b8381111562000557576000848401525b50505050565b600060028204905060018216806200057657607f821691505b602082108114156200058d576200058c62000610565b5b50919050565b6000620005a0826200051d565b91507fffffffffffffffffffffffffffffffffffffffffffffffffffffffffffffffff821415620005d657620005d5620005e1565b5b600182019050919050565b7f4e487b7100000000000000000000000000000000000000000000000000000000600052601160045260246000fd5b7f4e487b7100000000000000000000000000000000000000000000000000000000600052602260045260246000fd5b7f4e487b7100000000000000000000000000000000000000000000000000000000600052604160045260246000fd5b611af2806200067e6000396000f3fe608060405234801561001057600080fd5b506004361061010b5760003560e01c8063a6385803116100a2578063c19d93fb11610071578063c19d93fb14610275578063d3b3f37e14610293578063e2ba53f0146102b1578063f2fde38b146102cf578063f4ab9adf146102eb5761010b565b8063a6385803146101eb578063a805f1ca14610207578063af15408714610237578063b92239461461026b5761010b565b8063609ff1bd116100de578063609ff1bd14610187578063715018a6146101a55780638da5cb5b146101af5780639a0e7d66146101cd5761010b565b8063013cf08b146101105780630d15fd77146101415780632e4176cf1461015f5780634c0a6af01461017d575b600080fd5b61012a60048036038101906101259190611487565b610307565b604051610138929190611672565b60405180910390f35b6101496103c3565b6040516101569190611702565b60405180910390f35b6101676103c9565b604051610174919061161a565b60405180910390f35b6101856103ef565b005b61018f61054c565b60405161019c9190611702565b60405180910390f35b6101ad6106aa565b005b6101b7610732565b6040516101c4919061161a565b60405180910390f35b6101d561075b565b6040516101e29190611702565b60405180910390f35b61020560048036038101906102009190611433565b610765565b005b610221600480360381019061021c9190611487565b6109ef565b60405161022e9190611702565b60405180910390f35b610251600480360381019061024c919061140a565b610a44565b60405161026295949392919061171d565b60405180910390f35b610273610b1c565b005b61027d610c79565b60405161028a9190611635565b60405180910390f35b61029b610c8c565b6040516102a89190611702565b60405180910390f35b6102b9610c92565b6040516102c69190611650565b60405180910390f35b6102e960048036038101906102e4919061140a565b610e02565b005b6103056004803603810190610300919061140a565b610efa565b005b6008818154811061031757600080fd5b906000526020600020906002020160009150905080600001805461033a9061191e565b80601f01602080910402602001604051908101604052809291908181526020018280546103669061191e565b80156103b35780601f10610388576101008083540402835291602001916103b3565b820191906000526020600020905b81548152906001019060200180831161039657829003601f168201915b5050505050908060010154905082565b60015481565b600360009054906101000a900473ffffffffffffffffffffffffffffffffffffffff1681565b6103f76111a0565b73ffffffffffffffffffffffffffffffffffffffff16610415610732565b73ffffffffffffffffffffffffffffffffffffffff161461046b576040517f08c379a0000000000000000000000000000000000000000000000000000000008152600401610462906116e2565b60405180910390fd5b60008060028111156104a6577f4e487b7100000000000000000000000000000000000000000000000000000000600052602160045260246000fd5b600960009054906101000a900460ff1660028111156104ee577f4e487b7100000000000000000000000000000000000000000000000000000000600052602160045260246000fd5b146104f857600080fd5b6001600960006101000a81548160ff02191690836002811115610544577f4e487b7100000000000000000000000000000000000000000000000000000000600052602160045260246000fd5b021790555050565b60006002806002811115610589577f4e487b7100000000000000000000000000000000000000000000000000000000600052602160045260246000fd5b600960009054906101000a900460ff1660028111156105d1577f4e487b7100000000000000000000000000000000000000000000000000000000600052602160045260246000fd5b146105db57600080fd5b6000805b6008805490508110156106a4578160088281548110610627577f4e487b7100000000000000000000000000000000000000000000000000000000600052603260045260246000fd5b90600052602060002090600202016001015411156106915760088181548110610679577f4e487b7100000000000000000000000000000000000000000000000000000000600052603260045260246000fd5b90600052602060002090600202016001015491508093505b808061069c90611950565b9150506105df565b50505090565b6106b26111a0565b73ffffffffffffffffffffffffffffffffffffffff166106d0610732565b73ffffffffffffffffffffffffffffffffffffffff1614610726576040517f08c379a000000000000000000000000000000000000000000000000000000000815260040161071d906116e2565b60405180910390fd5b61073060006111a8565b565b60008060009054906101000a900473ffffffffffffffffffffffffffffffffffffffff16905090565b6000600154905090565b600360009054906101000a900473ffffffffffffffffffffffffffffffffffffffff1673ffffffffffffffffffffffffffffffffffffffff163373ffffffffffffffffffffffffffffffffffffffff1614156107c057600080fd5b60018060028111156107fb577f4e487b7100000000000000000000000000000000000000000000000000000000600052602160045260246000fd5b600960009054906101000a900460ff166002811115610843577f4e487b7100000000000000000000000000000000000000000000000000000000600052602160045260246000fd5b1461084d57600080fd5b60001515600760003373ffffffffffffffffffffffffffffffffffffffff1673ffffffffffffffffffffffffffffffffffffffff16815260200190815260200160002060030160009054906101000a900460ff161515146108e3576040517f08c379a00000000000000000000000000000000000000000000000000000000081526004016108da906116a2565b60405180910390fd5b600160008154809291906108f690611950565b91905055506000600760003373ffffffffffffffffffffffffffffffffffffffff1673ffffffffffffffffffffffffffffffffffffffff16815260200190815260200160002090508281600001819055508381600101908051906020019061095f92919061126c565b5060018160030160006101000a81548160ff0219169083151502179055504281600201819055506001600884815481106109c2577f4e487b7100000000000000000000000000000000000000000000000000000000600052603260045260246000fd5b906000526020600020906002020160010160008282546109e291906117f4565b9250508190555050505050565b600060088281548110610a2b577f4e487b7100000000000000000000000000000000000000000000000000000000600052603260045260246000fd5b9060005260206000209060020201600101549050919050565b6007602052806000526040600020600091509050806000015490806001018054610a6d9061191e565b80601f0160208091040260200160405190810160405280929190818152602001828054610a999061191e565b8015610ae65780601f10610abb57610100808354040283529160200191610ae6565b820191906000526020600020905b815481529060010190602001808311610ac957829003601f168201915b5050505050908060020154908060030160009054906101000a900460ff16908060030160019054906101000a900460ff16905085565b610b246111a0565b73ffffffffffffffffffffffffffffffffffffffff16610b42610732565b73ffffffffffffffffffffffffffffffffffffffff1614610b98576040517f08c379a0000000000000000000000000000000000000000000000000000000008152600401610b8f906116e2565b60405180910390fd5b6001806002811115610bd3577f4e487b7100000000000000000000000000000000000000000000000000000000600052602160045260246000fd5b600960009054906101000a900460ff166002811115610c1b577f4e487b7100000000000000000000000000000000000000000000000000000000600052602160045260246000fd5b14610c2557600080fd5b6002600960006101000a81548160ff02191690836002811115610c71577f4e487b7100000000000000000000000000000000000000000000000000000000600052602160045260246000fd5b021790555050565b600960009054906101000a900460ff1681565b60025481565b60606002806002811115610ccf577f4e487b7100000000000000000000000000000000000000000000000000000000600052602160045260246000fd5b600960009054906101000a900460ff166002811115610d17577f4e487b7100000000000000000000000000000000000000000000000000000000600052602160045260246000fd5b14610d2157600080fd5b6008610d2b61054c565b81548110610d62577f4e487b7100000000000000000000000000000000000000000000000000000000600052603260045260246000fd5b90600052602060002090600202016000018054610d7e9061191e565b80601f0160208091040260200160405190810160405280929190818152602001828054610daa9061191e565b8015610df75780601f10610dcc57610100808354040283529160200191610df7565b820191906000526020600020905b815481529060010190602001808311610dda57829003601f168201915b505050505091505090565b610e0a6111a0565b73ffffffffffffffffffffffffffffffffffffffff16610e28610732565b73ffffffffffffffffffffffffffffffffffffffff1614610e7e576040517f08c379a0000000000000000000000000000000000000000000000000000000008152600401610e75906116e2565b60405180910390fd5b600073ffffffffffffffffffffffffffffffffffffffff168173ffffffffffffffffffffffffffffffffffffffff161415610eee576040517f08c379a0000000000000000000000000000000000000000000000000000000008152600401610ee5906116c2565b60405180910390fd5b610ef7816111a8565b50565b610f026111a0565b73ffffffffffffffffffffffffffffffffffffffff16610f20610732565b73ffffffffffffffffffffffffffffffffffffffff1614610f76576040517f08c379a0000000000000000000000000000000000000000000000000000000008152600401610f6d906116e2565b60405180910390fd5b6000806002811115610fb1577f4e487b7100000000000000000000000000000000000000000000000000000000600052602160045260246000fd5b600960009054906101000a900460ff166002811115610ff9577f4e487b7100000000000000000000000000000000000000000000000000000000600052602160045260246000fd5b1461100357600080fd5b61100b6112f2565b600081606001901515908115158152505060018160800190600181111561105b577f4e487b7100000000000000000000000000000000000000000000000000000000600052602160045260246000fd5b90816001811115611095577f4e487b7100000000000000000000000000000000000000000000000000000000600052602160045260246000fd5b8152505080600760008573ffffffffffffffffffffffffffffffffffffffff1673ffffffffffffffffffffffffffffffffffffffff1681526020019081526020016000206000820151816000015560208201518160010190805190602001906110ff92919061126c565b506040820151816002015560608201518160030160006101000a81548160ff02191690831515021790555060808201518160030160016101000a81548160ff0219169083600181111561117b577f4e487b7100000000000000000000000000000000000000000000000000000000600052602160045260246000fd5b02179055509050506002600081548092919061119690611950565b9190505550505050565b600033905090565b60008060009054906101000a900473ffffffffffffffffffffffffffffffffffffffff169050816000806101000a81548173ffffffffffffffffffffffffffffffffffffffff021916908373ffffffffffffffffffffffffffffffffffffffff1602179055508173ffffffffffffffffffffffffffffffffffffffff168173ffffffffffffffffffffffffffffffffffffffff167f8be0079c531659141344cd1fd0a4f28419497f9722a3daafe3b4186f6b6457e060405160405180910390a35050565b8280546112789061191e565b90600052602060002090601f01602090048101928261129a57600085556112e1565b82601f106112b357805160ff19168380011785556112e1565b828001600101855582156112e1579182015b828111156112e05782518255916020019190600101906112c5565b5b5090506112ee919061135b565b5090565b6040518060a0016040528060008152602001606081526020016000815260200160001515815260200160006001811115611355577f4e487b7100000000000000000000000000000000000000000000000000000000600052602160045260246000fd5b81525090565b5b8082111561137457600081600090555060010161135c565b5090565b600061138b611386846117a8565b611777565b9050828152602081018484840111156113a357600080fd5b6113ae8482856118dc565b509392505050565b6000813590506113c581611a8e565b92915050565b600082601f8301126113dc57600080fd5b81356113ec848260208601611378565b91505092915050565b60008135905061140481611aa5565b92915050565b60006020828403121561141c57600080fd5b600061142a848285016113b6565b91505092915050565b6000806040838503121561144657600080fd5b600083013567ffffffffffffffff81111561146057600080fd5b61146c858286016113cb565b925050602061147d858286016113f5565b9150509250929050565b60006020828403121561149957600080fd5b60006114a7848285016113f5565b91505092915050565b6114b98161184a565b82525050565b6114c88161185c565b82525050565b6114d7816118b8565b82525050565b6114e6816118ca565b82525050565b60006114f7826117d8565b61150181856117e3565b93506115118185602086016118eb565b61151a81611a55565b840191505092915050565b6000611532600d836117e3565b91507f416c726561647920566f746564000000000000000000000000000000000000006000830152602082019050919050565b60006115726026836117e3565b91507f4f776e61626c653a206e6577206f776e657220697320746865207a65726f206160008301527f64647265737300000000000000000000000000000000000000000000000000006020830152604082019050919050565b60006115d86020836117e3565b91507f4f776e61626c653a2063616c6c6572206973206e6f7420746865206f776e65726000830152602082019050919050565b611614816118ae565b82525050565b600060208201905061162f60008301846114b0565b92915050565b600060208201905061164a60008301846114ce565b92915050565b6000602082019050818103600083015261166a81846114ec565b905092915050565b6000604082019050818103600083015261168c81856114ec565b905061169b602083018461160b565b9392505050565b600060208201905081810360008301526116bb81611525565b9050919050565b600060208201905081810360008301526116db81611565565b9050919050565b600060208201905081810360008301526116fb816115cb565b9050919050565b6000602082019050611717600083018461160b565b92915050565b600060a082019050611732600083018861160b565b818103602083015261174481876114ec565b9050611753604083018661160b565b61176060608301856114bf565b61176d60808301846114dd565b9695505050505050565b6000604051905081810181811067ffffffffffffffff8211171561179e5761179d611a26565b5b8060405250919050565b600067ffffffffffffffff8211156117c3576117c2611a26565b5b601f19601f8301169050602081019050919050565b600081519050919050565b600082825260208201905092915050565b60006117ff826118ae565b915061180a836118ae565b9250827fffffffffffffffffffffffffffffffffffffffffffffffffffffffffffffffff0382111561183f5761183e611999565b5b828201905092915050565b60006118558261188e565b9050919050565b60008115159050919050565b600081905061187682611a66565b919050565b600081905061188982611a7a565b919050565b600073ffffffffffffffffffffffffffffffffffffffff82169050919050565b6000819050919050565b60006118c382611868565b9050919050565b60006118d58261187b565b9050919050565b82818337600083830152505050565b60005b838110156119095780820151818401526020810190506118ee565b83811115611918576000848401525b50505050565b6000600282049050600182168061193657607f821691505b6020821081141561194a576119496119f7565b5b50919050565b600061195b826118ae565b91507fffffffffffffffffffffffffffffffffffffffffffffffffffffffffffffffff82141561198e5761198d611999565b5b600182019050919050565b7f4e487b7100000000000000000000000000000000000000000000000000000000600052601160045260246000fd5b7f4e487b7100000000000000000000000000000000000000000000000000000000600052602160045260246000fd5b7f4e487b7100000000000000000000000000000000000000000000000000000000600052602260045260246000fd5b7f4e487b7100000000000000000000000000000000000000000000000000000000600052604160045260246000fd5b6000601f19601f8301169050919050565b60038110611a7757611a766119c8565b5b50565b60028110611a8b57611a8a6119c8565b5b50565b611a978161184a565b8114611aa257600080fd5b50565b611aae816118ae565b8114611ab957600080fd5b5056fea2646970667358221220032a677ab30031030618d8ebe0d4ac2729d1c334d0883f95dd451d0bd5abdbef64736f6c63430008000033",
  "immutableReferences": {},
  "source": "// SPDX-License-Identifier: MIT\npragma solidity >=0.5.16 <0.9.0;\npragma experimental ABIEncoderV2;\n\n\n// import \"@openzeppelin/contracts/security/ReentrancyGuard.sol\";\n\nimport \"@openzeppelin/contracts/access/Ownable.sol\"; // ownable functions installed\nimport \"@openzeppelin/contracts/token/ERC20/ERC20.sol\";\n\ncontract voting is Ownable {\n  // State variables\n  uint256 public totalVotes; // total votes received\n  uint public totalVotersRegistered; // amount of people registered\n  address public chairperson;  // address of the contract deployer is chairperson\n  \n  uint totalTokens; // Available tokens for this election\n  uint balanceTokens; // Total tokens still available for purchase\n  uint tokenPrice; //Price per token \n  \n  mapping (address => Voter) public voterRegister; // mapping of voters \n    \n    struct Voter {\n    uint vote; // the index of the thing voted for\n    // uint voteNumber; // number of votes that voter has given\n    string message; // message of the voter\n    uint timestamp; // timetamp of the vote\n    bool voted; // whether the voter has voted\n    voterStatus status; //whether the voter is verified\n    \n  }\n  \n  Proposal[] public proposals; // initialise an empty array of proposals which are the candidates\n    struct Proposal {\n    string name; // name of the proposal\n    uint voteCount; // number of accumulated votes\n  }\n\n\n    enum voterStatus {unverified, verified} \n  enum State {Created, Voting, Ended} State public state;\n\n\n  // Events\n// event itemAdded(uint _skuCount, string _productName);\n\n  // Modifiers\nmodifier notOwner() {\n  require(msg.sender != chairperson);\n  _;\n}\n\nmodifier inState(State _state) {\n    require(state == _state);\n    _;\n}\n\n  constructor(string[] memory proposalNames) {  // constructor initialises once. \n    chairperson = msg.sender; // the person who deployed constract is the owner\n    \n\n    for (uint i = 0 ; i < proposalNames.length; i++) {\n      proposals.push(Proposal({\n        name: proposalNames[i],\n        voteCount:0\n      })); \n      }\n      state = State.Created;\n    }\n  \n\n  // Functions\n  function addVoter(address _voterAddress) public onlyOwner inState(State.Created) {\n        Voter memory v;\n        v.voted = false;\n        v.status = voterStatus.verified;\n        voterRegister[_voterAddress] = v;\n        \n        totalVotersRegistered++;\n        // emit voterAdded(_voterAddress);\n    }\n    \n    function startVote() public onlyOwner inState(State.Created) {\n        state = State.Voting;\n    }\n    \n    function endVote() public onlyOwner inState(State.Voting) {\n        state = State.Ended;\n    }\n\n\n\n  // 1. Create the voting function\n  function vote(string memory _message, uint proposal) public notOwner() inState(State.Voting) {\n    // require(msg.value == 1000000000000000);\n    require(voterRegister[msg.sender].voted == false, \"Already Voted\");\n    totalVotes ++; // increment total vote counts\n    // console.log(\"%s has voted!\", msg.sender); // create a console log indicating a vote event\n    Voter storage sender = voterRegister[msg.sender]; // create new 'Voter' struct named sender within voters mapping\n    sender.vote = proposal; \n    sender.message = _message;\n    sender.voted = true;\n    sender.timestamp = block.timestamp;\n\n    proposals[proposal].voteCount +=1; \n    \n    \n  }\n\n// 2. Create a function for obtaining the index of the winning Proposal\n  function winningProposal() public view inState(State.Ended) returns (uint winningProposal_) {\n    uint winningVoteCount = 0;\n\n    for (uint p=0; p< proposals.length; p++) {\n      if (proposals[p].voteCount > winningVoteCount) {\n        winningVoteCount = proposals[p].voteCount;\n        winningProposal_ = p;\n      }\n    }\n  }\n\n// 3. Create a function for obtaining the string name of the winning proposal\n  function winnerName() public view inState(State.Ended) returns (string memory winnerName_) {\n    winnerName_ = proposals[winningProposal()].name;\n  }\n\n  // 4. Create a function for obtaining the total votes on the proposal\n  function getTotalVotes() public view returns (uint256) {\n    return totalVotes;\n  }\n\n// 5. Create a function for returning the votes a candidate has received so far\nfunction totalVotesFor(uint _index) public view returns (uint256) {\n  return proposals[_index].voteCount;\n}\n\n}\n\n\n\n\n\n\n\n\n  \n\n\n\n\n\n\n\n\n\n\n\n\n\n\n\n\n",
  "sourcePath": "/mnt/c/Users/Mason-PC/Documents/GitHub/blockchain-developer-final-project/contracts/voting.sol",
  "compiler": {
    "name": "solc",
    "version": "0.8.0+commit.c7dfd78e.Emscripten.clang"
  },
  "schemaVersion": "3.4.3",
  "updatedAt": "2021-11-21T06:37:48.848Z",
  "devdoc": {
    "kind": "dev",
    "methods": {
      "owner()": {
        "details": "Returns the address of the current owner."
      },
      "renounceOwnership()": {
        "details": "Leaves the contract without owner. It will not be possible to call `onlyOwner` functions anymore. Can only be called by the current owner. NOTE: Renouncing ownership will leave the contract without an owner, thereby removing any functionality that is only available to the owner."
      },
      "transferOwnership(address)": {
        "details": "Transfers ownership of the contract to a new account (`newOwner`). Can only be called by the current owner."
      }
    },
    "version": 1
  },
  "userdoc": {
    "kind": "user",
    "methods": {},
    "version": 1
  }
}