{
  "contractName": "voting",
  "abi": [
    {
      "inputs": [
        {
          "internalType": "string[]",
          "name": "proposalNames",
          "type": "string[]"
        }
      ],
      "stateMutability": "nonpayable",
      "type": "constructor"
    },
    {
      "anonymous": false,
      "inputs": [
        {
          "indexed": true,
          "internalType": "address",
          "name": "previousOwner",
          "type": "address"
        },
        {
          "indexed": true,
          "internalType": "address",
          "name": "newOwner",
          "type": "address"
        }
      ],
      "name": "OwnershipTransferred",
      "type": "event"
    },
    {
      "inputs": [],
      "name": "chairperson",
      "outputs": [
        {
          "internalType": "address",
          "name": "",
          "type": "address"
        }
      ],
      "stateMutability": "view",
      "type": "function",
      "constant": true
    },
    {
      "inputs": [],
      "name": "owner",
      "outputs": [
        {
          "internalType": "address",
          "name": "",
          "type": "address"
        }
      ],
      "stateMutability": "view",
      "type": "function",
      "constant": true
    },
    {
      "inputs": [
        {
          "internalType": "uint256",
          "name": "",
          "type": "uint256"
        }
      ],
      "name": "proposals",
      "outputs": [
        {
          "internalType": "string",
          "name": "name",
          "type": "string"
        },
        {
          "internalType": "uint256",
          "name": "voteCount",
          "type": "uint256"
        }
      ],
      "stateMutability": "view",
      "type": "function",
      "constant": true
    },
    {
      "inputs": [],
      "name": "renounceOwnership",
      "outputs": [],
      "stateMutability": "nonpayable",
      "type": "function"
    },
    {
      "inputs": [],
      "name": "state",
      "outputs": [
        {
          "internalType": "enum voting.State",
          "name": "",
          "type": "uint8"
        }
      ],
      "stateMutability": "view",
      "type": "function",
      "constant": true
    },
    {
      "inputs": [],
      "name": "totalVotersRegistered",
      "outputs": [
        {
          "internalType": "uint256",
          "name": "",
          "type": "uint256"
        }
      ],
      "stateMutability": "view",
      "type": "function",
      "constant": true
    },
    {
      "inputs": [],
      "name": "totalVotes",
      "outputs": [
        {
          "internalType": "uint256",
          "name": "",
          "type": "uint256"
        }
      ],
      "stateMutability": "view",
      "type": "function",
      "constant": true
    },
    {
      "inputs": [
        {
          "internalType": "address",
          "name": "newOwner",
          "type": "address"
        }
      ],
      "name": "transferOwnership",
      "outputs": [],
      "stateMutability": "nonpayable",
      "type": "function"
    },
    {
      "inputs": [
        {
          "internalType": "address",
          "name": "",
          "type": "address"
        }
      ],
      "name": "voterRegister",
      "outputs": [
        {
          "internalType": "uint256",
          "name": "vote",
          "type": "uint256"
        },
        {
          "internalType": "string",
          "name": "message",
          "type": "string"
        },
        {
          "internalType": "uint256",
          "name": "timestamp",
          "type": "uint256"
        },
        {
          "internalType": "bool",
          "name": "voted",
          "type": "bool"
        },
        {
          "internalType": "enum voting.voterStatus",
          "name": "status",
          "type": "uint8"
        }
      ],
      "stateMutability": "view",
      "type": "function",
      "constant": true
    },
    {
      "inputs": [
        {
          "internalType": "address",
          "name": "_voterAddress",
          "type": "address"
        }
      ],
      "name": "addVoter",
      "outputs": [],
      "stateMutability": "nonpayable",
      "type": "function"
    },
    {
      "inputs": [],
      "name": "startVote",
      "outputs": [],
      "stateMutability": "nonpayable",
      "type": "function"
    },
    {
      "inputs": [],
      "name": "endVote",
      "outputs": [],
      "stateMutability": "nonpayable",
      "type": "function"
    },
    {
      "inputs": [
        {
          "internalType": "string",
          "name": "_message",
          "type": "string"
        },
        {
          "internalType": "uint256",
          "name": "proposal",
          "type": "uint256"
        }
      ],
      "name": "vote",
      "outputs": [],
      "stateMutability": "nonpayable",
      "type": "function"
    },
    {
      "inputs": [],
      "name": "winningProposal",
      "outputs": [
        {
          "internalType": "uint256",
          "name": "winningProposal_",
          "type": "uint256"
        }
      ],
      "stateMutability": "view",
      "type": "function",
      "constant": true
    },
    {
      "inputs": [],
      "name": "winnerName",
      "outputs": [
        {
          "internalType": "string",
          "name": "winnerName_",
          "type": "string"
        }
      ],
      "stateMutability": "view",
      "type": "function",
      "constant": true
    },
    {
      "inputs": [],
      "name": "getTotalVotes",
      "outputs": [
        {
          "internalType": "uint256",
          "name": "",
          "type": "uint256"
        }
      ],
      "stateMutability": "view",
      "type": "function",
      "constant": true
    },
    {
      "inputs": [
        {
          "internalType": "uint256",
          "name": "_index",
          "type": "uint256"
        }
      ],
      "name": "totalVotesFor",
      "outputs": [
        {
          "internalType": "uint256",
          "name": "",
          "type": "uint256"
        }
      ],
      "stateMutability": "view",
      "type": "function",
      "constant": true
    }
  ],
  "bytecode": "0x60806040523480156200001157600080fd5b5060405162001f6738038062001f6783398181016040528101906200003791906200058f565b620000576200004b6200017a60201b60201c565b6200018260201b60201c565b33600360006101000a81548173ffffffffffffffffffffffffffffffffffffffff021916908373ffffffffffffffffffffffffffffffffffffffff16021790555060005b8151811015620001445760086040518060400160405280848481518110620000c857620000c7620005e0565b5b602002602001015181526020016000815250908060018154018082558091505060019003906000526020600020906002020160009091909190915060008201518160000190805190602001906200012192919062000246565b5060208201518160010155505080806200013b9062000648565b9150506200009b565b506000600960006101000a81548160ff021916908360028111156200016e576200016d62000696565b5b0217905550506200072a565b600033905090565b60008060009054906101000a900473ffffffffffffffffffffffffffffffffffffffff169050816000806101000a81548173ffffffffffffffffffffffffffffffffffffffff021916908373ffffffffffffffffffffffffffffffffffffffff1602179055508173ffffffffffffffffffffffffffffffffffffffff168173ffffffffffffffffffffffffffffffffffffffff167f8be0079c531659141344cd1fd0a4f28419497f9722a3daafe3b4186f6b6457e060405160405180910390a35050565b8280546200025490620006f4565b90600052602060002090601f016020900481019282620002785760008555620002c4565b82601f106200029357805160ff1916838001178555620002c4565b82800160010185558215620002c4579182015b82811115620002c3578251825591602001919060010190620002a6565b5b509050620002d39190620002d7565b5090565b5b80821115620002f2576000816000905550600101620002d8565b5090565b6000604051905090565b600080fd5b600080fd5b600080fd5b6000601f19601f8301169050919050565b7f4e487b7100000000000000000000000000000000000000000000000000000000600052604160045260246000fd5b6200035a826200030f565b810181811067ffffffffffffffff821117156200037c576200037b62000320565b5b80604052505050565b600062000391620002f6565b90506200039f82826200034f565b919050565b600067ffffffffffffffff821115620003c257620003c162000320565b5b602082029050602081019050919050565b600080fd5b600080fd5b600067ffffffffffffffff821115620003fb57620003fa62000320565b5b62000406826200030f565b9050602081019050919050565b60005b838110156200043357808201518184015260208101905062000416565b8381111562000443576000848401525b50505050565b6000620004606200045a84620003dd565b62000385565b9050828152602081018484840111156200047f576200047e620003d8565b5b6200048c84828562000413565b509392505050565b600082601f830112620004ac57620004ab6200030a565b5b8151620004be84826020860162000449565b91505092915050565b6000620004de620004d884620003a4565b62000385565b90508083825260208201905060208402830185811115620005045762000503620003d3565b5b835b818110156200055257805167ffffffffffffffff8111156200052d576200052c6200030a565b5b8086016200053c898262000494565b8552602085019450505060208101905062000506565b5050509392505050565b600082601f8301126200057457620005736200030a565b5b815162000586848260208601620004c7565b91505092915050565b600060208284031215620005a857620005a762000300565b5b600082015167ffffffffffffffff811115620005c957620005c862000305565b5b620005d7848285016200055c565b91505092915050565b7f4e487b7100000000000000000000000000000000000000000000000000000000600052603260045260246000fd5b7f4e487b7100000000000000000000000000000000000000000000000000000000600052601160045260246000fd5b6000819050919050565b600062000655826200063e565b91507fffffffffffffffffffffffffffffffffffffffffffffffffffffffffffffffff8214156200068b576200068a6200060f565b5b600182019050919050565b7f4e487b7100000000000000000000000000000000000000000000000000000000600052602160045260246000fd5b7f4e487b7100000000000000000000000000000000000000000000000000000000600052602260045260246000fd5b600060028204905060018216806200070d57607f821691505b60208210811415620007245762000723620006c5565b5b50919050565b61182d806200073a6000396000f3fe608060405234801561001057600080fd5b506004361061010b5760003560e01c8063a6385803116100a2578063c19d93fb11610071578063c19d93fb14610275578063d3b3f37e14610293578063e2ba53f0146102b1578063f2fde38b146102cf578063f4ab9adf146102eb5761010b565b8063a6385803146101eb578063a805f1ca14610207578063af15408714610237578063b92239461461026b5761010b565b8063609ff1bd116100de578063609ff1bd14610187578063715018a6146101a55780638da5cb5b146101af5780639a0e7d66146101cd5761010b565b8063013cf08b146101105780630d15fd77146101415780632e4176cf1461015f5780634c0a6af01461017d575b600080fd5b61012a60048036038101906101259190611058565b610307565b60405161013892919061112d565b60405180910390f35b6101496103c3565b604051610156919061115d565b60405180910390f35b6101676103c9565b60405161017491906111b9565b60405180910390f35b6101856103ef565b005b61018f6104da565b60405161019c919061115d565b60405180910390f35b6101ad6105a0565b005b6101b7610628565b6040516101c491906111b9565b60405180910390f35b6101d5610651565b6040516101e2919061115d565b60405180910390f35b61020560048036038101906102009190611309565b61065b565b005b610221600480360381019061021c9190611058565b610873565b60405161022e919061115d565b60405180910390f35b610251600480360381019061024c9190611391565b6108a2565b604051610262959493929190611450565b60405180910390f35b61027361097a565b005b61027d610a65565b60405161028a91906114f2565b60405180910390f35b61029b610a78565b6040516102a8919061115d565b60405180910390f35b6102b9610a7e565b6040516102c6919061150d565b60405180910390f35b6102e960048036038101906102e49190611391565b610b7c565b005b61030560048036038101906103009190611391565b610c74565b005b6008818154811061031757600080fd5b906000526020600020906002020160009150905080600001805461033a9061155e565b80601f01602080910402602001604051908101604052809291908181526020018280546103669061155e565b80156103b35780601f10610388576101008083540402835291602001916103b3565b820191906000526020600020905b81548152906001019060200180831161039657829003601f168201915b5050505050908060010154905082565b60015481565b600360009054906101000a900473ffffffffffffffffffffffffffffffffffffffff1681565b6103f7610e5c565b73ffffffffffffffffffffffffffffffffffffffff16610415610628565b73ffffffffffffffffffffffffffffffffffffffff161461046b576040517f08c379a0000000000000000000000000000000000000000000000000000000008152600401610462906115dc565b60405180910390fd5b60008060028111156104805761047f6113d9565b5b600960009054906101000a900460ff1660028111156104a2576104a16113d9565b5b146104ac57600080fd5b6001600960006101000a81548160ff021916908360028111156104d2576104d16113d9565b5b021790555050565b600060028060028111156104f1576104f06113d9565b5b600960009054906101000a900460ff166002811115610513576105126113d9565b5b1461051d57600080fd5b6000805b60088054905081101561059a578160088281548110610543576105426115fc565b5b9060005260206000209060020201600101541115610587576008818154811061056f5761056e6115fc565b5b90600052602060002090600202016001015491508093505b80806105929061165a565b915050610521565b50505090565b6105a8610e5c565b73ffffffffffffffffffffffffffffffffffffffff166105c6610628565b73ffffffffffffffffffffffffffffffffffffffff161461061c576040517f08c379a0000000000000000000000000000000000000000000000000000000008152600401610613906115dc565b60405180910390fd5b6106266000610e64565b565b60008060009054906101000a900473ffffffffffffffffffffffffffffffffffffffff16905090565b6000600154905090565b600360009054906101000a900473ffffffffffffffffffffffffffffffffffffffff1673ffffffffffffffffffffffffffffffffffffffff163373ffffffffffffffffffffffffffffffffffffffff1614156106b657600080fd5b60018060028111156106cb576106ca6113d9565b5b600960009054906101000a900460ff1660028111156106ed576106ec6113d9565b5b146106f757600080fd5b60001515600760003373ffffffffffffffffffffffffffffffffffffffff1673ffffffffffffffffffffffffffffffffffffffff16815260200190815260200160002060030160009054906101000a900460ff1615151461078d576040517f08c379a0000000000000000000000000000000000000000000000000000000008152600401610784906116ef565b60405180910390fd5b600160008154809291906107a09061165a565b91905055506000600760003373ffffffffffffffffffffffffffffffffffffffff1673ffffffffffffffffffffffffffffffffffffffff168152602001908152602001600020905082816000018190555083816001019080519060200190610809929190610f28565b5060018160030160006101000a81548160ff021916908315150217905550428160020181905550600160088481548110610846576108456115fc565b5b90600052602060002090600202016001016000828254610866919061170f565b9250508190555050505050565b600060088281548110610889576108886115fc565b5b9060005260206000209060020201600101549050919050565b60076020528060005260406000206000915090508060000154908060010180546108cb9061155e565b80601f01602080910402602001604051908101604052809291908181526020018280546108f79061155e565b80156109445780601f1061091957610100808354040283529160200191610944565b820191906000526020600020905b81548152906001019060200180831161092757829003601f168201915b5050505050908060020154908060030160009054906101000a900460ff16908060030160019054906101000a900460ff16905085565b610982610e5c565b73ffffffffffffffffffffffffffffffffffffffff166109a0610628565b73ffffffffffffffffffffffffffffffffffffffff16146109f6576040517f08c379a00000000000000000000000000000000000000000000000000000000081526004016109ed906115dc565b60405180910390fd5b6001806002811115610a0b57610a0a6113d9565b5b600960009054906101000a900460ff166002811115610a2d57610a2c6113d9565b5b14610a3757600080fd5b6002600960006101000a81548160ff02191690836002811115610a5d57610a5c6113d9565b5b021790555050565b600960009054906101000a900460ff1681565b60025481565b60606002806002811115610a9557610a946113d9565b5b600960009054906101000a900460ff166002811115610ab757610ab66113d9565b5b14610ac157600080fd5b6008610acb6104da565b81548110610adc57610adb6115fc565b5b90600052602060002090600202016000018054610af89061155e565b80601f0160208091040260200160405190810160405280929190818152602001828054610b249061155e565b8015610b715780601f10610b4657610100808354040283529160200191610b71565b820191906000526020600020905b815481529060010190602001808311610b5457829003601f168201915b505050505091505090565b610b84610e5c565b73ffffffffffffffffffffffffffffffffffffffff16610ba2610628565b73ffffffffffffffffffffffffffffffffffffffff1614610bf8576040517f08c379a0000000000000000000000000000000000000000000000000000000008152600401610bef906115dc565b60405180910390fd5b600073ffffffffffffffffffffffffffffffffffffffff168173ffffffffffffffffffffffffffffffffffffffff161415610c68576040517f08c379a0000000000000000000000000000000000000000000000000000000008152600401610c5f906117d7565b60405180910390fd5b610c7181610e64565b50565b610c7c610e5c565b73ffffffffffffffffffffffffffffffffffffffff16610c9a610628565b73ffffffffffffffffffffffffffffffffffffffff1614610cf0576040517f08c379a0000000000000000000000000000000000000000000000000000000008152600401610ce7906115dc565b60405180910390fd5b6000806002811115610d0557610d046113d9565b5b600960009054906101000a900460ff166002811115610d2757610d266113d9565b5b14610d3157600080fd5b610d39610fae565b6000816060019015159081151581525050600181608001906001811115610d6357610d626113d9565b5b90816001811115610d7757610d766113d9565b5b8152505080600760008573ffffffffffffffffffffffffffffffffffffffff1673ffffffffffffffffffffffffffffffffffffffff168152602001908152602001600020600082015181600001556020820151816001019080519060200190610de1929190610f28565b506040820151816002015560608201518160030160006101000a81548160ff02191690831515021790555060808201518160030160016101000a81548160ff02191690836001811115610e3757610e366113d9565b5b021790555090505060026000815480929190610e529061165a565b9190505550505050565b600033905090565b60008060009054906101000a900473ffffffffffffffffffffffffffffffffffffffff169050816000806101000a81548173ffffffffffffffffffffffffffffffffffffffff021916908373ffffffffffffffffffffffffffffffffffffffff1602179055508173ffffffffffffffffffffffffffffffffffffffff168173ffffffffffffffffffffffffffffffffffffffff167f8be0079c531659141344cd1fd0a4f28419497f9722a3daafe3b4186f6b6457e060405160405180910390a35050565b828054610f349061155e565b90600052602060002090601f016020900481019282610f565760008555610f9d565b82601f10610f6f57805160ff1916838001178555610f9d565b82800160010185558215610f9d579182015b82811115610f9c578251825591602001919060010190610f81565b5b509050610faa9190610ff1565b5090565b6040518060a0016040528060008152602001606081526020016000815260200160001515815260200160006001811115610feb57610fea6113d9565b5b81525090565b5b8082111561100a576000816000905550600101610ff2565b5090565b6000604051905090565b600080fd5b600080fd5b6000819050919050565b61103581611022565b811461104057600080fd5b50565b6000813590506110528161102c565b92915050565b60006020828403121561106e5761106d611018565b5b600061107c84828501611043565b91505092915050565b600081519050919050565b600082825260208201905092915050565b60005b838110156110bf5780820151818401526020810190506110a4565b838111156110ce576000848401525b50505050565b6000601f19601f8301169050919050565b60006110f082611085565b6110fa8185611090565b935061110a8185602086016110a1565b611113816110d4565b840191505092915050565b61112781611022565b82525050565b6000604082019050818103600083015261114781856110e5565b9050611156602083018461111e565b9392505050565b6000602082019050611172600083018461111e565b92915050565b600073ffffffffffffffffffffffffffffffffffffffff82169050919050565b60006111a382611178565b9050919050565b6111b381611198565b82525050565b60006020820190506111ce60008301846111aa565b92915050565b600080fd5b600080fd5b7f4e487b7100000000000000000000000000000000000000000000000000000000600052604160045260246000fd5b611216826110d4565b810181811067ffffffffffffffff82111715611235576112346111de565b5b80604052505050565b600061124861100e565b9050611254828261120d565b919050565b600067ffffffffffffffff821115611274576112736111de565b5b61127d826110d4565b9050602081019050919050565b82818337600083830152505050565b60006112ac6112a784611259565b61123e565b9050828152602081018484840111156112c8576112c76111d9565b5b6112d384828561128a565b509392505050565b600082601f8301126112f0576112ef6111d4565b5b8135611300848260208601611299565b91505092915050565b600080604083850312156113205761131f611018565b5b600083013567ffffffffffffffff81111561133e5761133d61101d565b5b61134a858286016112db565b925050602061135b85828601611043565b9150509250929050565b61136e81611198565b811461137957600080fd5b50565b60008135905061138b81611365565b92915050565b6000602082840312156113a7576113a6611018565b5b60006113b58482850161137c565b91505092915050565b60008115159050919050565b6113d3816113be565b82525050565b7f4e487b7100000000000000000000000000000000000000000000000000000000600052602160045260246000fd5b60028110611419576114186113d9565b5b50565b600081905061142a82611408565b919050565b600061143a8261141c565b9050919050565b61144a8161142f565b82525050565b600060a082019050611465600083018861111e565b818103602083015261147781876110e5565b9050611486604083018661111e565b61149360608301856113ca565b6114a06080830184611441565b9695505050505050565b600381106114bb576114ba6113d9565b5b50565b60008190506114cc826114aa565b919050565b60006114dc826114be565b9050919050565b6114ec816114d1565b82525050565b600060208201905061150760008301846114e3565b92915050565b6000602082019050818103600083015261152781846110e5565b905092915050565b7f4e487b7100000000000000000000000000000000000000000000000000000000600052602260045260246000fd5b6000600282049050600182168061157657607f821691505b6020821081141561158a5761158961152f565b5b50919050565b7f4f776e61626c653a2063616c6c6572206973206e6f7420746865206f776e6572600082015250565b60006115c6602083611090565b91506115d182611590565b602082019050919050565b600060208201905081810360008301526115f5816115b9565b9050919050565b7f4e487b7100000000000000000000000000000000000000000000000000000000600052603260045260246000fd5b7f4e487b7100000000000000000000000000000000000000000000000000000000600052601160045260246000fd5b600061166582611022565b91507fffffffffffffffffffffffffffffffffffffffffffffffffffffffffffffffff8214156116985761169761162b565b5b600182019050919050565b7f416c726561647920566f74656400000000000000000000000000000000000000600082015250565b60006116d9600d83611090565b91506116e4826116a3565b602082019050919050565b60006020820190508181036000830152611708816116cc565b9050919050565b600061171a82611022565b915061172583611022565b9250827fffffffffffffffffffffffffffffffffffffffffffffffffffffffffffffffff0382111561175a5761175961162b565b5b828201905092915050565b7f4f776e61626c653a206e6577206f776e657220697320746865207a65726f206160008201527f6464726573730000000000000000000000000000000000000000000000000000602082015250565b60006117c1602683611090565b91506117cc82611765565b604082019050919050565b600060208201905081810360008301526117f0816117b4565b905091905056fea2646970667358221220b7f029c71fd0f744ec99df92376a56af9c8548e4c4bf334682200b84c9b913f364736f6c634300080a0033",
  "immutableReferences": {},
  "source": "// SPDX-License-Identifier: MIT\npragma solidity 0.8.10;\npragma experimental ABIEncoderV2;\n\n/// @title A contract for voting\n/// @author datadawg-11\n/// @notice This contract is used to perform a simple voting between two groups and governed by a chairperson aka the owner of contract\nimport \"@openzeppelin/contracts/access/Ownable.sol\"; // ownable functions installed\n\ncontract voting is Ownable {\n  // State variables\n  uint256 public totalVotes; // total votes received\n  uint public totalVotersRegistered; // amount of people registered\n  address public chairperson;  // address of the contract deployer is chairperson\n  \n  uint totalTokens; // Available tokens for this election\n  uint balanceTokens; // Total tokens still available for purchase\n  uint tokenPrice; //Price per token \n  \n  mapping (address => Voter) public voterRegister; // mapping of voters \n    \n    struct Voter {\n    uint vote; // the index of the thing voted for\n    // uint voteNumber; // number of votes that voter has given\n    string message; // message of the voter\n    uint timestamp; // timetamp of the vote\n    bool voted; // whether the voter has voted\n    voterStatus status; //whether the voter is verified\n    }\n  \n  Proposal[] public proposals; // initialise an empty array of proposals which are the candidates\n    struct Proposal {\n    string name; // name of the proposal\n    uint voteCount; // number of accumulated votes\n  }\n\n  enum voterStatus {unverified, verified} \n  enum State {Created, Voting, Ended} State public state;\n\n  // Modifiers\nmodifier notOwner() {\n  require(msg.sender != chairperson);\n  _;\n}\n\nmodifier inState(State _state) {\n    require(state == _state);\n    _;\n}\n\n  constructor(string[] memory proposalNames) {  // constructor initialises once. \n    chairperson = msg.sender; // the person who deployed constract is the owner\n    \n    for (uint i = 0 ; i < proposalNames.length; i++) {\n      proposals.push(Proposal({\n        name: proposalNames[i],\n        voteCount:0\n      })); \n      }\n      state = State.Created;\n    }\n  \n  // Functions\n\n\n  /// @notice Add a voted to the registry so they are able to vote in the voting stage\n  /// @param _voterAddress The address of the voter\n  function addVoter(address _voterAddress) public onlyOwner inState(State.Created) {\n        Voter memory v;\n        v.voted = false;\n        v.status = voterStatus.verified;\n        voterRegister[_voterAddress] = v;\n        \n        totalVotersRegistered++;\n        // emit voterAdded(_voterAddress);\n    }\n    \n    /// @notice Starts the voting round\n    /// @dev there are three states for voting\n    function startVote() public onlyOwner inState(State.Created) {\n        state = State.Voting;\n    }\n    \n    /// @notice Ends the voting round\n    /// @dev there are three states for voting\n    function endVote() public onlyOwner inState(State.Voting) {\n        state = State.Ended;\n    }\n\n    /// @notice the voting function that registered users will call\n    /// @dev there are three states for voting\n    /// @param _message Message that the voter sends\n    /// @param proposal This is the index of the candidates, either 0 or 1  \n  function vote(string memory _message, uint proposal) public notOwner() inState(State.Voting) {\n    // require(msg.value == 1000000000000000);\n    require(voterRegister[msg.sender].voted == false, \"Already Voted\");\n    totalVotes ++; // increment total vote counts\n    // console.log(\"%s has voted!\", msg.sender); // create a console log indicating a vote event\n    Voter storage sender = voterRegister[msg.sender]; // create new 'Voter' struct named sender within voters mapping\n    sender.vote = proposal; \n    sender.message = _message;\n    sender.voted = true;\n    sender.timestamp = block.timestamp;\n\n    proposals[proposal].voteCount +=1; \n    \n  }\n\n\n/// @notice function to return the winning proposal after voting has ended\n/// @dev for loop initiated that iterates through each of the candidates vote count to determine the winner\n/// @return winningProposal_ this is the index of the winning proposal\n  function winningProposal() public view inState(State.Ended) returns (uint winningProposal_) {\n    uint winningVoteCount = 0;\n\n    for (uint p=0; p< proposals.length; p++) {\n      if (proposals[p].voteCount > winningVoteCount) {\n        winningVoteCount = proposals[p].voteCount;\n        winningProposal_ = p;\n      }\n    }\n  }\n\n/// @notice function to return the winning proposal string after voting has ended\n/// @dev has a nested function which it calls to return the index\n/// @return winnerName_ this is the string of the winning proposal\n  function winnerName() public view inState(State.Ended) returns (string memory winnerName_) {\n    winnerName_ = proposals[winningProposal()].name;\n  }\n\n /// @notice function to return the total votes received (getter function)\n  function getTotalVotes() public view returns (uint256) {\n    return totalVotes;\n  }\n\n/// @notice function to return the total votes for a particular candidate\nfunction totalVotesFor(uint _index) public view returns (uint256) {\n  return proposals[_index].voteCount;\n}\n\n}\n\n\n\n\n\n\n\n\n  \n\n\n\n\n\n\n\n\n\n\n\n\n\n\n\n\n",
  "sourcePath": "/mnt/c/Users/Mason-PC/Documents/GitHub/blockchain-developer-final-project/contracts/voting.sol",
  "compiler": {
    "name": "solc",
    "version": "0.8.10+commit.fc410830.Emscripten.clang"
  },
  "schemaVersion": "3.4.3",
  "updatedAt": "2021-11-29T07:57:39.580Z",
  "networkType": "ethereum",
  "devdoc": {
    "kind": "dev",
    "methods": {
      "addVoter(address)": {
        "params": {
          "_voterAddress": "The address of the voter"
        }
      },
      "endVote()": {
        "details": "there are three states for voting"
      },
      "owner()": {
        "details": "Returns the address of the current owner."
      },
      "renounceOwnership()": {
        "details": "Leaves the contract without owner. It will not be possible to call `onlyOwner` functions anymore. Can only be called by the current owner. NOTE: Renouncing ownership will leave the contract without an owner, thereby removing any functionality that is only available to the owner."
      },
      "startVote()": {
        "details": "there are three states for voting"
      },
      "transferOwnership(address)": {
        "details": "Transfers ownership of the contract to a new account (`newOwner`). Can only be called by the current owner."
      },
      "vote(string,uint256)": {
        "details": "there are three states for voting",
        "params": {
          "_message": "Message that the voter sends",
          "proposal": "This is the index of the candidates, either 0 or 1  "
        }
      },
      "winnerName()": {
        "details": "has a nested function which it calls to return the index",
        "returns": {
          "winnerName_": "this is the string of the winning proposal"
        }
      },
      "winningProposal()": {
        "details": "for loop initiated that iterates through each of the candidates vote count to determine the winner",
        "returns": {
          "winningProposal_": "this is the index of the winning proposal"
        }
      }
    },
    "version": 1
  },
  "userdoc": {
    "kind": "user",
    "methods": {
      "addVoter(address)": {
        "notice": "Add a voted to the registry so they are able to vote in the voting stage"
      },
      "endVote()": {
        "notice": "Ends the voting round"
      },
      "getTotalVotes()": {
        "notice": "function to return the total votes received (getter function)"
      },
      "startVote()": {
        "notice": "Starts the voting round"
      },
      "totalVotesFor(uint256)": {
        "notice": "function to return the total votes for a particular candidate"
      },
      "vote(string,uint256)": {
        "notice": "the voting function that registered users will call"
      },
      "winnerName()": {
        "notice": "function to return the winning proposal string after voting has ended"
      },
      "winningProposal()": {
        "notice": "function to return the winning proposal after voting has ended"
      }
    },
    "version": 1
  }
}