{
  "contractName": "voting",
  "abi": [
    {
      "inputs": [
        {
          "internalType": "string[]",
          "name": "proposalNames",
          "type": "string[]"
        }
      ],
      "payable": false,
      "stateMutability": "nonpayable",
      "type": "constructor"
    },
    {
      "constant": true,
      "inputs": [],
      "name": "balanceTokens",
      "outputs": [
        {
          "internalType": "uint256",
          "name": "",
          "type": "uint256"
        }
      ],
      "payable": false,
      "stateMutability": "view",
      "type": "function"
    },
    {
      "constant": true,
      "inputs": [],
      "name": "chairperson",
      "outputs": [
        {
          "internalType": "address",
          "name": "",
          "type": "address"
        }
      ],
      "payable": false,
      "stateMutability": "view",
      "type": "function"
    },
    {
      "constant": true,
      "inputs": [
        {
          "internalType": "uint256",
          "name": "",
          "type": "uint256"
        }
      ],
      "name": "proposals",
      "outputs": [
        {
          "internalType": "string",
          "name": "name",
          "type": "string"
        },
        {
          "internalType": "uint256",
          "name": "voteCount",
          "type": "uint256"
        }
      ],
      "payable": false,
      "stateMutability": "view",
      "type": "function"
    },
    {
      "constant": true,
      "inputs": [],
      "name": "state",
      "outputs": [
        {
          "internalType": "enum voting.State",
          "name": "",
          "type": "uint8"
        }
      ],
      "payable": false,
      "stateMutability": "view",
      "type": "function"
    },
    {
      "constant": true,
      "inputs": [],
      "name": "tokenPrice",
      "outputs": [
        {
          "internalType": "uint256",
          "name": "",
          "type": "uint256"
        }
      ],
      "payable": false,
      "stateMutability": "view",
      "type": "function"
    },
    {
      "constant": true,
      "inputs": [],
      "name": "totalTokens",
      "outputs": [
        {
          "internalType": "uint256",
          "name": "",
          "type": "uint256"
        }
      ],
      "payable": false,
      "stateMutability": "view",
      "type": "function"
    },
    {
      "constant": false,
      "inputs": [
        {
          "internalType": "string",
          "name": "_message",
          "type": "string"
        },
        {
          "internalType": "uint256",
          "name": "proposal",
          "type": "uint256"
        }
      ],
      "name": "vote",
      "outputs": [],
      "payable": true,
      "stateMutability": "payable",
      "type": "function"
    },
    {
      "constant": true,
      "inputs": [],
      "name": "winningProposal",
      "outputs": [
        {
          "internalType": "uint256",
          "name": "winningProposal_",
          "type": "uint256"
        }
      ],
      "payable": false,
      "stateMutability": "view",
      "type": "function"
    },
    {
      "constant": true,
      "inputs": [],
      "name": "winnerName",
      "outputs": [
        {
          "internalType": "string",
          "name": "winnerName_",
          "type": "string"
        }
      ],
      "payable": false,
      "stateMutability": "view",
      "type": "function"
    },
    {
      "constant": true,
      "inputs": [],
      "name": "getTotalVotes",
      "outputs": [
        {
          "internalType": "uint256",
          "name": "",
          "type": "uint256"
        }
      ],
      "payable": false,
      "stateMutability": "view",
      "type": "function"
    },
    {
      "constant": true,
      "inputs": [
        {
          "internalType": "uint256",
          "name": "_index",
          "type": "uint256"
        }
      ],
      "name": "totalVotesFor",
      "outputs": [
        {
          "internalType": "uint256",
          "name": "",
          "type": "uint256"
        }
      ],
      "payable": false,
      "stateMutability": "view",
      "type": "function"
    }
  ],
  "bytecode": "0x60806040523480156200001157600080fd5b5060405162000e3c38038062000e3c8339818101604052620000379190810190620002a9565b33600160006101000a81548173ffffffffffffffffffffffffffffffffffffffff021916908373ffffffffffffffffffffffffffffffffffffffff16021790555060008090505b8151811015620001195760036040518060400160405280848481518110620000a257fe5b602002602001015181526020016000815250908060018154018082558091505090600182039060005260206000209060020201600090919290919091506000820151816000019080519060200190620000fd92919062000121565b506020820151816001015550505080806001019150506200007e565b5050620003a8565b828054600181600116156101000203166002900490600052602060002090601f016020900481019282601f106200016457805160ff191683800117855562000195565b8280016001018555821562000195579182015b828111156200019457825182559160200191906001019062000177565b5b509050620001a49190620001a8565b5090565b620001cd91905b80821115620001c9576000816000905550600101620001af565b5090565b90565b600082601f830112620001e257600080fd5b8151620001f9620001f3826200031c565b620002ee565b9150818183526020840193506020810190508360005b838110156200024357815186016200022888826200024d565b8452602084019350602083019250506001810190506200020f565b5050505092915050565b600082601f8301126200025f57600080fd5b815162000276620002708262000345565b620002ee565b915080825260208301602083018583830111156200029357600080fd5b620002a083828462000372565b50505092915050565b600060208284031215620002bc57600080fd5b600082015167ffffffffffffffff811115620002d757600080fd5b620002e584828501620001d0565b91505092915050565b6000604051905081810181811067ffffffffffffffff821117156200031257600080fd5b8060405250919050565b600067ffffffffffffffff8211156200033457600080fd5b602082029050602081019050919050565b600067ffffffffffffffff8211156200035d57600080fd5b601f19601f8301169050602081019050919050565b60005b838110156200039257808201518184015260208101905062000375565b83811115620003a2576000848401525b50505050565b610a8480620003b86000396000f3fe60806040526004361061009c5760003560e01c80639a0e7d66116100645780639a0e7d661461018b578063a6385803146101b6578063a805f1ca146101d2578063c19d93fb1461020f578063e2ba53f01461023a578063e4494a0f146102655761009c565b8063013cf08b146100a15780632e4176cf146100df578063609ff1bd1461010a5780637e1c0c09146101355780637ff9b59614610160575b600080fd5b3480156100ad57600080fd5b506100c860048036036100c3919081019061077e565b610290565b6040516100d692919061089e565b60405180910390f35b3480156100eb57600080fd5b506100f4610359565b6040516101019190610846565b60405180910390f35b34801561011657600080fd5b5061011f61037f565b60405161012c91906108ce565b60405180910390f35b34801561014157600080fd5b5061014a6103f6565b60405161015791906108ce565b60405180910390f35b34801561016c57600080fd5b506101756103fc565b60405161018291906108ce565b60405180910390f35b34801561019757600080fd5b506101a0610402565b6040516101ad91906108ce565b60405180910390f35b6101d060048036036101cb919081019061072a565b61040b565b005b3480156101de57600080fd5b506101f960048036036101f4919081019061077e565b610516565b60405161020691906108ce565b60405180910390f35b34801561021b57600080fd5b5061022461053e565b6040516102319190610861565b60405180910390f35b34801561024657600080fd5b5061024f610551565b60405161025c919061087c565b60405180910390f35b34801561027157600080fd5b5061027a610616565b60405161028791906108ce565b60405180910390f35b6003818154811061029d57fe5b9060005260206000209060020201600091509050806000018054600181600116156101000203166002900480601f0160208091040260200160405190810160405280929190818152602001828054600181600116156101000203166002900480156103495780601f1061031e57610100808354040283529160200191610349565b820191906000526020600020905b81548152906001019060200180831161032c57829003601f168201915b5050505050908060010154905082565b600160009054906101000a900473ffffffffffffffffffffffffffffffffffffffff1681565b6000806000905060008090505b6003805490508110156103f15781600382815481106103a757fe5b90600052602060002090600202016001015411156103e457600381815481106103cc57fe5b90600052602060002090600202016001015491508092505b808060010191505061038c565b505090565b60045481565b60065481565b60008054905090565b600160009054906101000a900473ffffffffffffffffffffffffffffffffffffffff1673ffffffffffffffffffffffffffffffffffffffff163373ffffffffffffffffffffffffffffffffffffffff16141561046657600080fd5b600160008082825401925050819055506000600260003373ffffffffffffffffffffffffffffffffffffffff1673ffffffffffffffffffffffffffffffffffffffff1681526020019081526020016000209050818160000181905550828160010190805190602001906104da92919061061c565b504281600201819055506001600383815481106104f357fe5b906000526020600020906002020160010160008282540192505081905550505050565b60006003828154811061052557fe5b9060005260206000209060020201600101549050919050565b600760009054906101000a900460ff1681565b6060600361055d61037f565b8154811061056757fe5b90600052602060002090600202016000018054600181600116156101000203166002900480601f01602080910402602001604051908101604052809291908181526020018280546001816001161561010002031660029004801561060c5780601f106105e15761010080835404028352916020019161060c565b820191906000526020600020905b8154815290600101906020018083116105ef57829003601f168201915b5050505050905090565b60055481565b828054600181600116156101000203166002900490600052602060002090601f016020900481019282601f1061065d57805160ff191683800117855561068b565b8280016001018555821561068b579182015b8281111561068a57825182559160200191906001019061066f565b5b509050610698919061069c565b5090565b6106be91905b808211156106ba5760008160009055506001016106a2565b5090565b90565b600082601f8301126106d257600080fd5b81356106e56106e082610916565b6108e9565b9150808252602083016020830185838301111561070157600080fd5b61070c8382846109ca565b50505092915050565b60008135905061072481610a2a565b92915050565b6000806040838503121561073d57600080fd5b600083013567ffffffffffffffff81111561075757600080fd5b610763858286016106c1565b925050602061077485828601610715565b9150509250929050565b60006020828403121561079057600080fd5b600061079e84828501610715565b91505092915050565b6107b081610969565b82525050565b6107bf816109b8565b82525050565b60006107d08261094d565b6107da8185610958565b93506107ea8185602086016109d9565b6107f381610a0c565b840191505092915050565b600061080982610942565b6108138185610958565b93506108238185602086016109d9565b61082c81610a0c565b840191505092915050565b610840816109ae565b82525050565b600060208201905061085b60008301846107a7565b92915050565b600060208201905061087660008301846107b6565b92915050565b6000602082019050818103600083015261089681846107c5565b905092915050565b600060408201905081810360008301526108b881856107fe565b90506108c76020830184610837565b9392505050565b60006020820190506108e36000830184610837565b92915050565b6000604051905081810181811067ffffffffffffffff8211171561090c57600080fd5b8060405250919050565b600067ffffffffffffffff82111561092d57600080fd5b601f19601f8301169050602081019050919050565b600081519050919050565b600081519050919050565b600082825260208201905092915050565b60006109748261098e565b9050919050565b600081905061098982610a1d565b919050565b600073ffffffffffffffffffffffffffffffffffffffff82169050919050565b6000819050919050565b60006109c38261097b565b9050919050565b82818337600083830152505050565b60005b838110156109f75780820151818401526020810190506109dc565b83811115610a06576000848401525b50505050565b6000601f19601f8301169050919050565b60038110610a2757fe5b50565b610a33816109ae565b8114610a3e57600080fd5b5056fea365627a7a7231582001ba375edd26f97720f487d38b99575fc832d69dc09a508556a19ef4dcadd6556c6578706572696d656e74616cf564736f6c63430005100040",
  "source": "// SPDX-License-Identifier: MIT\npragma solidity >=0.5.16 <0.9.0;\npragma experimental ABIEncoderV2;\n\n// import \"@openzeppelin/contracts/access/AccessControl.sol\";\n// import \"@openzeppelin/contracts/security/ReentrancyGuard.sol\";\n\n\ncontract voting {\n  // State variables\n  uint256 totalVotes; // total votes received\n  address public chairperson;  // address of the contract deployer is chairperson\n  \n  mapping (address => Voter) voters; // mapping of voters \n    struct Voter {\n    // address voterAddress; // address of voter\n    uint vote; // the index of the thing voted for\n    // uint voteNumber; // number of votes that voter has given\n    string message; // message of the voter\n    uint timestamp; // timetamp of the vote\n  }\n  \n  Proposal[] public proposals; // initialise an empty array of proposals which are the candidates\n    struct Proposal {\n    string name; // name of the proposal\n    uint voteCount; // number of accumulated votes\n  }\n  uint public totalTokens; // Available tokens for this election\n  uint public balanceTokens; // Total tokens still available for purchase\n  uint public tokenPrice; //Price per token \n\n  enum State {\n    Created, Voting, Ended\n  } State public state;\n\n\n  // Events\n// event itemAdded(uint _skuCount, string _productName);\n\n  // Modifiers\nmodifier notOwner() {\n  require(msg.sender != chairperson);\n  _;\n}\n  constructor(string[] memory proposalNames) public {  // constructor initialises once. \n    chairperson = msg.sender; // the person who deployed constract is the owner\n    \n    for (uint i = 0 ; i < proposalNames.length; i++) {\n      proposals.push(Proposal({\n        name: proposalNames[i],\n        voteCount:0\n      })); \n      }\n    }\n  \n\n  // Functions\n\n  // 1. Create the voting function\n  function vote(string memory _message, uint proposal) public payable notOwner() {\n    // require(msg.value == 1000000000000000);\n    totalVotes +=1; // increment total vote counts\n    // console.log(\"%s has voted!\", msg.sender); // create a console log indicating a vote event\n    Voter storage sender = voters[msg.sender]; // create new 'Voter' struct named sender within voters mapping\n    sender.vote = proposal; \n    sender.message = _message;  \n    sender.timestamp = block.timestamp;\n\n    proposals[proposal].voteCount +=1; \n  }\n\n// 2. Create a function for obtaining the index of the winning Proposal\n  function winningProposal() public view returns (uint winningProposal_) {\n    uint winningVoteCount = 0;\n\n    for (uint p=0; p< proposals.length; p++) {\n      if (proposals[p].voteCount > winningVoteCount) {\n        winningVoteCount = proposals[p].voteCount;\n        winningProposal_ = p;\n      }\n    }\n  }\n\n// 3. Create a function for obtaining the string name of the winning proposal\n  function winnerName() public view returns (string memory winnerName_) {\n    winnerName_ = proposals[winningProposal()].name;\n  }\n\n  // 4. Create a function for obtaining the total votes on the proposal\n  function getTotalVotes() public view returns (uint256) {\n    return totalVotes;\n  }\n\n// 5. Create a function for returning the votes a candidate has received so far\nfunction totalVotesFor(uint _index) public view returns (uint256) {\n  return proposals[_index].voteCount;\n} \n\n// function validCandidate()\n\n\n\n\n\n\n\n\n\n\n}\n  \n\n\n\n\n\n\n\n\n\n\n\n\n\n\n\n\n",
  "sourcePath": "/mnt/c/Users/Mason-PC/Documents/GitHub/blockchain-developer-final-project/contracts/voting.sol",
  "compiler": {
    "name": "solc",
    "version": "0.5.16+commit.9c3226ce.Emscripten.clang"
  },
  "schemaVersion": "3.4.3",
  "updatedAt": "2021-11-03T08:11:05.351Z",
  "devdoc": {
    "methods": {}
  },
  "userdoc": {
    "methods": {}
  }
}