{
  "contractName": "voting",
  "abi": [
    {
      "inputs": [
        {
          "internalType": "string[]",
          "name": "proposalNames",
          "type": "string[]"
        }
      ],
      "payable": false,
      "stateMutability": "nonpayable",
      "type": "constructor"
    },
    {
      "constant": true,
      "inputs": [],
      "name": "chairperson",
      "outputs": [
        {
          "internalType": "address",
          "name": "",
          "type": "address"
        }
      ],
      "payable": false,
      "stateMutability": "view",
      "type": "function"
    },
    {
      "constant": true,
      "inputs": [
        {
          "internalType": "uint256",
          "name": "",
          "type": "uint256"
        }
      ],
      "name": "proposals",
      "outputs": [
        {
          "internalType": "string",
          "name": "name",
          "type": "string"
        },
        {
          "internalType": "uint256",
          "name": "voteCount",
          "type": "uint256"
        }
      ],
      "payable": false,
      "stateMutability": "view",
      "type": "function"
    },
    {
      "constant": true,
      "inputs": [],
      "name": "state",
      "outputs": [
        {
          "internalType": "enum voting.State",
          "name": "",
          "type": "uint8"
        }
      ],
      "payable": false,
      "stateMutability": "view",
      "type": "function"
    },
    {
      "constant": true,
      "inputs": [],
      "name": "totalVotersRegistered",
      "outputs": [
        {
          "internalType": "uint256",
          "name": "",
          "type": "uint256"
        }
      ],
      "payable": false,
      "stateMutability": "view",
      "type": "function"
    },
    {
      "constant": true,
      "inputs": [],
      "name": "totalVotes",
      "outputs": [
        {
          "internalType": "uint256",
          "name": "",
          "type": "uint256"
        }
      ],
      "payable": false,
      "stateMutability": "view",
      "type": "function"
    },
    {
      "constant": true,
      "inputs": [
        {
          "internalType": "address",
          "name": "",
          "type": "address"
        }
      ],
      "name": "voterRegister",
      "outputs": [
        {
          "internalType": "uint256",
          "name": "vote",
          "type": "uint256"
        },
        {
          "internalType": "string",
          "name": "message",
          "type": "string"
        },
        {
          "internalType": "uint256",
          "name": "timestamp",
          "type": "uint256"
        },
        {
          "internalType": "bool",
          "name": "voted",
          "type": "bool"
        },
        {
          "internalType": "enum voting.voterStatus",
          "name": "status",
          "type": "uint8"
        }
      ],
      "payable": false,
      "stateMutability": "view",
      "type": "function"
    },
    {
      "constant": false,
      "inputs": [
        {
          "internalType": "address",
          "name": "_voterAddress",
          "type": "address"
        }
      ],
      "name": "addVoter",
      "outputs": [],
      "payable": false,
      "stateMutability": "nonpayable",
      "type": "function"
    },
    {
      "constant": false,
      "inputs": [],
      "name": "startVote",
      "outputs": [],
      "payable": false,
      "stateMutability": "nonpayable",
      "type": "function"
    },
    {
      "constant": false,
      "inputs": [],
      "name": "endVote",
      "outputs": [],
      "payable": false,
      "stateMutability": "nonpayable",
      "type": "function"
    },
    {
      "constant": false,
      "inputs": [
        {
          "internalType": "string",
          "name": "_message",
          "type": "string"
        },
        {
          "internalType": "uint256",
          "name": "proposal",
          "type": "uint256"
        }
      ],
      "name": "vote",
      "outputs": [],
      "payable": false,
      "stateMutability": "nonpayable",
      "type": "function"
    },
    {
      "constant": true,
      "inputs": [],
      "name": "winningProposal",
      "outputs": [
        {
          "internalType": "uint256",
          "name": "winningProposal_",
          "type": "uint256"
        }
      ],
      "payable": false,
      "stateMutability": "view",
      "type": "function"
    },
    {
      "constant": true,
      "inputs": [],
      "name": "winnerName",
      "outputs": [
        {
          "internalType": "string",
          "name": "winnerName_",
          "type": "string"
        }
      ],
      "payable": false,
      "stateMutability": "view",
      "type": "function"
    },
    {
      "constant": true,
      "inputs": [],
      "name": "getTotalVotes",
      "outputs": [
        {
          "internalType": "uint256",
          "name": "",
          "type": "uint256"
        }
      ],
      "payable": false,
      "stateMutability": "view",
      "type": "function"
    },
    {
      "constant": true,
      "inputs": [
        {
          "internalType": "uint256",
          "name": "_index",
          "type": "uint256"
        }
      ],
      "name": "totalVotesFor",
      "outputs": [
        {
          "internalType": "uint256",
          "name": "",
          "type": "uint256"
        }
      ],
      "payable": false,
      "stateMutability": "view",
      "type": "function"
    }
  ],
  "bytecode": "0x60806040523480156200001157600080fd5b50604051620015d1380380620015d18339818101604052620000379190810190620002ce565b33600260006101000a81548173ffffffffffffffffffffffffffffffffffffffff021916908373ffffffffffffffffffffffffffffffffffffffff16021790555060008090505b8151811015620001195760076040518060400160405280848481518110620000a257fe5b602002602001015181526020016000815250908060018154018082558091505090600182039060005260206000209060020201600090919290919091506000820151816000019080519060200190620000fd92919062000146565b506020820151816001015550505080806001019150506200007e565b506000600860006101000a81548160ff021916908360028111156200013a57fe5b021790555050620003cd565b828054600181600116156101000203166002900490600052602060002090601f016020900481019282601f106200018957805160ff1916838001178555620001ba565b82800160010185558215620001ba579182015b82811115620001b95782518255916020019190600101906200019c565b5b509050620001c99190620001cd565b5090565b620001f291905b80821115620001ee576000816000905550600101620001d4565b5090565b90565b600082601f8301126200020757600080fd5b81516200021e620002188262000341565b62000313565b9150818183526020840193506020810190508360005b838110156200026857815186016200024d888262000272565b84526020840193506020830192505060018101905062000234565b5050505092915050565b600082601f8301126200028457600080fd5b81516200029b62000295826200036a565b62000313565b91508082526020830160208301858383011115620002b857600080fd5b620002c583828462000397565b50505092915050565b600060208284031215620002e157600080fd5b600082015167ffffffffffffffff811115620002fc57600080fd5b6200030a84828501620001f5565b91505092915050565b6000604051905081810181811067ffffffffffffffff821117156200033757600080fd5b8060405250919050565b600067ffffffffffffffff8211156200035957600080fd5b602082029050602081019050919050565b600067ffffffffffffffff8211156200038257600080fd5b601f19601f8301169050602081019050919050565b60005b83811015620003b75780820151818401526020810190506200039a565b83811115620003c7576000848401525b50505050565b6111f480620003dd6000396000f3fe608060405234801561001057600080fd5b50600436106100ea5760003560e01c8063a805f1ca1161008c578063c19d93fb11610066578063c19d93fb1461022c578063d3b3f37e1461024a578063e2ba53f014610268578063f4ab9adf14610286576100ea565b8063a805f1ca146101be578063af154087146101ee578063b922394614610222576100ea565b80634c0a6af0116100c85780634c0a6af01461015c578063609ff1bd146101665780639a0e7d6614610184578063a6385803146101a2576100ea565b8063013cf08b146100ef5780630d15fd77146101205780632e4176cf1461013e575b600080fd5b61010960048036036101049190810190610dc1565b6102a2565b604051610117929190610f3f565b60405180910390f35b61012861036b565b6040516101359190610f8f565b60405180910390f35b610146610371565b6040516101539190610ee7565b60405180910390f35b610164610397565b005b61016e61044b565b60405161017b9190610f8f565b60405180910390f35b61018c6104f6565b6040516101999190610f8f565b60405180910390f35b6101bc60048036036101b79190810190610d6d565b6104ff565b005b6101d860048036036101d39190810190610dc1565b6106f2565b6040516101e59190610f8f565b60405180910390f35b61020860048036036102039190810190610d44565b61071a565b604051610219959493929190610faa565b60405180910390f35b61022a610802565b005b6102346108b6565b6040516102419190610f02565b60405180910390f35b6102526108c9565b60405161025f9190610f8f565b60405180910390f35b6102706108cf565b60405161027d9190610f1d565b60405180910390f35b6102a0600480360361029b9190810190610d44565b6109c8565b005b600781815481106102af57fe5b9060005260206000209060020201600091509050806000018054600181600116156101000203166002900480601f01602080910402602001604051908101604052809291908181526020018280546001816001161561010002031660029004801561035b5780601f106103305761010080835404028352916020019161035b565b820191906000526020600020905b81548152906001019060200180831161033e57829003601f168201915b5050505050908060010154905082565b60005481565b600260009054906101000a900473ffffffffffffffffffffffffffffffffffffffff1681565b600260009054906101000a900473ffffffffffffffffffffffffffffffffffffffff1673ffffffffffffffffffffffffffffffffffffffff163373ffffffffffffffffffffffffffffffffffffffff16146103f157600080fd5b60008060028111156103ff57fe5b600860009054906101000a900460ff16600281111561041a57fe5b1461042457600080fd5b6001600860006101000a81548160ff0219169083600281111561044357fe5b021790555050565b6000600280600281111561045b57fe5b600860009054906101000a900460ff16600281111561047657fe5b1461048057600080fd5b600080905060008090505b6007805490508110156104f05781600782815481106104a657fe5b90600052602060002090600202016001015411156104e357600781815481106104cb57fe5b90600052602060002090600202016001015491508093505b808060010191505061048b565b50505090565b60008054905090565b600260009054906101000a900473ffffffffffffffffffffffffffffffffffffffff1673ffffffffffffffffffffffffffffffffffffffff163373ffffffffffffffffffffffffffffffffffffffff16141561055a57600080fd5b600180600281111561056857fe5b600860009054906101000a900460ff16600281111561058357fe5b1461058d57600080fd5b60001515600660003373ffffffffffffffffffffffffffffffffffffffff1673ffffffffffffffffffffffffffffffffffffffff16815260200190815260200160002060030160009054906101000a900460ff16151514610623576040517f08c379a000000000000000000000000000000000000000000000000000000000815260040161061a90610f6f565b60405180910390fd5b60008081548092919060010191905055506000600660003373ffffffffffffffffffffffffffffffffffffffff1673ffffffffffffffffffffffffffffffffffffffff168152602001908152602001600020905082816000018190555083816001019080519060200190610698929190610b65565b5060018160030160006101000a81548160ff0219169083151502179055504281600201819055506001600784815481106106ce57fe5b90600052602060002090600202016001016000828254019250508190555050505050565b60006007828154811061070157fe5b9060005260206000209060020201600101549050919050565b6006602052806000526040600020600091509050806000015490806001018054600181600116156101000203166002900480601f0160208091040260200160405190810160405280929190818152602001828054600181600116156101000203166002900480156107cc5780601f106107a1576101008083540402835291602001916107cc565b820191906000526020600020905b8154815290600101906020018083116107af57829003601f168201915b5050505050908060020154908060030160009054906101000a900460ff16908060030160019054906101000a900460ff16905085565b600260009054906101000a900473ffffffffffffffffffffffffffffffffffffffff1673ffffffffffffffffffffffffffffffffffffffff163373ffffffffffffffffffffffffffffffffffffffff161461085c57600080fd5b600180600281111561086a57fe5b600860009054906101000a900460ff16600281111561088557fe5b1461088f57600080fd5b6002600860006101000a81548160ff021916908360028111156108ae57fe5b021790555050565b600860009054906101000a900460ff1681565b60015481565b606060028060028111156108df57fe5b600860009054906101000a900460ff1660028111156108fa57fe5b1461090457600080fd5b600761090e61044b565b8154811061091857fe5b90600052602060002090600202016000018054600181600116156101000203166002900480601f0160208091040260200160405190810160405280929190818152602001828054600181600116156101000203166002900480156109bd5780601f10610992576101008083540402835291602001916109bd565b820191906000526020600020905b8154815290600101906020018083116109a057829003601f168201915b505050505091505090565b600260009054906101000a900473ffffffffffffffffffffffffffffffffffffffff1673ffffffffffffffffffffffffffffffffffffffff163373ffffffffffffffffffffffffffffffffffffffff1614610a2257600080fd5b6000806002811115610a3057fe5b600860009054906101000a900460ff166002811115610a4b57fe5b14610a5557600080fd5b610a5d610be5565b6000816060019015159081151581525050600181608001906001811115610a8057fe5b90816001811115610a8d57fe5b8152505080600660008573ffffffffffffffffffffffffffffffffffffffff1673ffffffffffffffffffffffffffffffffffffffff168152602001908152602001600020600082015181600001556020820151816001019080519060200190610af7929190610c21565b506040820151816002015560608201518160030160006101000a81548160ff02191690831515021790555060808201518160030160016101000a81548160ff02191690836001811115610b4657fe5b0217905550905050600160008154809291906001019190505550505050565b828054600181600116156101000203166002900490600052602060002090601f016020900481019282601f10610ba657805160ff1916838001178555610bd4565b82800160010185558215610bd4579182015b82811115610bd3578251825591602001919060010190610bb8565b5b509050610be19190610ca1565b5090565b6040518060a0016040528060008152602001606081526020016000815260200160001515815260200160006001811115610c1b57fe5b81525090565b828054600181600116156101000203166002900490600052602060002090601f016020900481019282601f10610c6257805160ff1916838001178555610c90565b82800160010185558215610c90579182015b82811115610c8f578251825591602001919060010190610c74565b5b509050610c9d9190610ca1565b5090565b610cc391905b80821115610cbf576000816000905550600101610ca7565b5090565b90565b600081359050610cd581611183565b92915050565b600082601f830112610cec57600080fd5b8135610cff610cfa82611031565b611004565b91508082526020830160208301858383011115610d1b57600080fd5b610d26838284611116565b50505092915050565b600081359050610d3e8161119a565b92915050565b600060208284031215610d5657600080fd5b6000610d6484828501610cc6565b91505092915050565b60008060408385031215610d8057600080fd5b600083013567ffffffffffffffff811115610d9a57600080fd5b610da685828601610cdb565b9250506020610db785828601610d2f565b9150509250929050565b600060208284031215610dd357600080fd5b6000610de184828501610d2f565b91505092915050565b610df381611084565b82525050565b610e0281611096565b82525050565b610e11816110f2565b82525050565b610e2081611104565b82525050565b6000610e3182611068565b610e3b8185611073565b9350610e4b818560208601611125565b610e5481611158565b840191505092915050565b6000610e6a8261105d565b610e748185611073565b9350610e84818560208601611125565b610e8d81611158565b840191505092915050565b6000610ea5600d83611073565b91507f416c726561647920566f746564000000000000000000000000000000000000006000830152602082019050919050565b610ee1816110e8565b82525050565b6000602082019050610efc6000830184610dea565b92915050565b6000602082019050610f176000830184610e08565b92915050565b60006020820190508181036000830152610f378184610e26565b905092915050565b60006040820190508181036000830152610f598185610e5f565b9050610f686020830184610ed8565b9392505050565b60006020820190508181036000830152610f8881610e98565b9050919050565b6000602082019050610fa46000830184610ed8565b92915050565b600060a082019050610fbf6000830188610ed8565b8181036020830152610fd18187610e5f565b9050610fe06040830186610ed8565b610fed6060830185610df9565b610ffa6080830184610e17565b9695505050505050565b6000604051905081810181811067ffffffffffffffff8211171561102757600080fd5b8060405250919050565b600067ffffffffffffffff82111561104857600080fd5b601f19601f8301169050602081019050919050565b600081519050919050565b600081519050919050565b600082825260208201905092915050565b600061108f826110c8565b9050919050565b60008115159050919050565b60008190506110b082611169565b919050565b60008190506110c382611176565b919050565b600073ffffffffffffffffffffffffffffffffffffffff82169050919050565b6000819050919050565b60006110fd826110a2565b9050919050565b600061110f826110b5565b9050919050565b82818337600083830152505050565b60005b83811015611143578082015181840152602081019050611128565b83811115611152576000848401525b50505050565b6000601f19601f8301169050919050565b6003811061117357fe5b50565b6002811061118057fe5b50565b61118c81611084565b811461119757600080fd5b50565b6111a3816110e8565b81146111ae57600080fd5b5056fea365627a7a723158201fa1fd3c0786587a14f39bba86897ea560a7202cd866d9fcae9d2afb81e7920e6c6578706572696d656e74616cf564736f6c63430005100040",
  "source": "// SPDX-License-Identifier: MIT\npragma solidity >=0.5.16 <0.9.0;\npragma experimental ABIEncoderV2;\n\n// import \"@openzeppelin/contracts/access/AccessControl.sol\";\n// import \"@openzeppelin/contracts/security/ReentrancyGuard.sol\";\n\n\ncontract voting {\n  // State variables\n  uint256 public totalVotes; // total votes received\n  uint public totalVotersRegistered; // amount of people registered\n  address public chairperson;  // address of the contract deployer is chairperson\n  \n  uint totalTokens; // Available tokens for this election\n  uint balanceTokens; // Total tokens still available for purchase\n  uint tokenPrice; //Price per token \n  \n  mapping (address => Voter) public voterRegister; // mapping of voters \n    \n    struct Voter {\n    uint vote; // the index of the thing voted for\n    // uint voteNumber; // number of votes that voter has given\n    string message; // message of the voter\n    uint timestamp; // timetamp of the vote\n    bool voted; // whether the voter has voted\n    voterStatus status; //whether the voter is verified\n    \n  }\n  \n  Proposal[] public proposals; // initialise an empty array of proposals which are the candidates\n    struct Proposal {\n    string name; // name of the proposal\n    uint voteCount; // number of accumulated votes\n  }\n\n\n    enum voterStatus {unverified, verified} \n  enum State {Created, Voting, Ended} State public state;\n\n\n  // Events\n// event itemAdded(uint _skuCount, string _productName);\n\n  // Modifiers\nmodifier notOwner() {\n  require(msg.sender != chairperson);\n  _;\n}\n\nmodifier onlyOwner() {\n  require(msg.sender == chairperson);\n  _;\n}\n\nmodifier inState(State _state) {\n    require(state == _state);\n    _;\n}\n\n  constructor(string[] memory proposalNames) public {  // constructor initialises once. \n    chairperson = msg.sender; // the person who deployed constract is the owner\n    \n\n    for (uint i = 0 ; i < proposalNames.length; i++) {\n      proposals.push(Proposal({\n        name: proposalNames[i],\n        voteCount:0\n      })); \n      }\n      state = State.Created;\n    }\n  \n\n  // Functions\n  function addVoter(address _voterAddress) public onlyOwner() inState(State.Created) {\n        Voter memory v;\n        v.voted = false;\n        v.status = voterStatus.verified;\n        voterRegister[_voterAddress] = v;\n        \n        totalVotersRegistered++;\n        // emit voterAdded(_voterAddress);\n    }\n    \n    function startVote() public onlyOwner() inState(State.Created) {\n        state = State.Voting;\n    }\n    \n    function endVote() public onlyOwner() inState(State.Voting) {\n        state = State.Ended;\n    }\n\n\n\n  // 1. Create the voting function\n  function vote(string memory _message, uint proposal) public notOwner() inState(State.Voting) {\n    // require(msg.value == 1000000000000000);\n    require(voterRegister[msg.sender].voted == false, \"Already Voted\");\n    totalVotes ++; // increment total vote counts\n    // console.log(\"%s has voted!\", msg.sender); // create a console log indicating a vote event\n    Voter storage sender = voterRegister[msg.sender]; // create new 'Voter' struct named sender within voters mapping\n    sender.vote = proposal; \n    sender.message = _message;\n    sender.voted = true;\n    sender.timestamp = block.timestamp;\n\n    proposals[proposal].voteCount +=1; \n    \n    \n  }\n\n// 2. Create a function for obtaining the index of the winning Proposal\n  function winningProposal() public view inState(State.Ended) returns (uint winningProposal_) {\n    uint winningVoteCount = 0;\n\n    for (uint p=0; p< proposals.length; p++) {\n      if (proposals[p].voteCount > winningVoteCount) {\n        winningVoteCount = proposals[p].voteCount;\n        winningProposal_ = p;\n      }\n    }\n  }\n\n// 3. Create a function for obtaining the string name of the winning proposal\n  function winnerName() public view inState(State.Ended) returns (string memory winnerName_) {\n    winnerName_ = proposals[winningProposal()].name;\n  }\n\n  // 4. Create a function for obtaining the total votes on the proposal\n  function getTotalVotes() public view returns (uint256) {\n    return totalVotes;\n  }\n\n// 5. Create a function for returning the votes a candidate has received so far\nfunction totalVotesFor(uint _index) public view returns (uint256) {\n  return proposals[_index].voteCount;\n}\n\n}\n\n\n\n\n\n\n\n\n  \n\n\n\n\n\n\n\n\n\n\n\n\n\n\n\n\n",
  "sourcePath": "/mnt/c/Users/Mason-PC/Documents/GitHub/blockchain-developer-final-project/contracts/voting.sol",
  "compiler": {
    "name": "solc",
    "version": "0.5.16+commit.9c3226ce.Emscripten.clang"
  },
  "schemaVersion": "3.4.3",
  "updatedAt": "2021-11-06T03:06:25.139Z",
  "networkType": "ethereum",
  "devdoc": {
    "methods": {}
  },
  "userdoc": {
    "methods": {}
  }
}