{
  "contractName": "voting",
  "abi": [
    {
      "inputs": [
        {
          "internalType": "string[]",
          "name": "proposalNames",
          "type": "string[]"
        }
      ],
      "payable": false,
      "stateMutability": "nonpayable",
      "type": "constructor"
    },
    {
      "constant": true,
      "inputs": [],
      "name": "chairperson",
      "outputs": [
        {
          "internalType": "address",
          "name": "",
          "type": "address"
        }
      ],
      "payable": false,
      "stateMutability": "view",
      "type": "function"
    },
    {
      "constant": true,
      "inputs": [
        {
          "internalType": "uint256",
          "name": "",
          "type": "uint256"
        }
      ],
      "name": "proposals",
      "outputs": [
        {
          "internalType": "string",
          "name": "name",
          "type": "string"
        },
        {
          "internalType": "uint256",
          "name": "voteCount",
          "type": "uint256"
        }
      ],
      "payable": false,
      "stateMutability": "view",
      "type": "function"
    },
    {
      "constant": true,
      "inputs": [],
      "name": "state",
      "outputs": [
        {
          "internalType": "enum voting.State",
          "name": "",
          "type": "uint8"
        }
      ],
      "payable": false,
      "stateMutability": "view",
      "type": "function"
    },
    {
      "constant": false,
      "inputs": [
        {
          "internalType": "string",
          "name": "_message",
          "type": "string"
        },
        {
          "internalType": "uint256",
          "name": "proposal",
          "type": "uint256"
        }
      ],
      "name": "vote",
      "outputs": [],
      "payable": false,
      "stateMutability": "nonpayable",
      "type": "function"
    },
    {
      "constant": true,
      "inputs": [],
      "name": "winningProposal",
      "outputs": [
        {
          "internalType": "uint256",
          "name": "winningProposal_",
          "type": "uint256"
        }
      ],
      "payable": false,
      "stateMutability": "view",
      "type": "function"
    },
    {
      "constant": true,
      "inputs": [],
      "name": "winnerName",
      "outputs": [
        {
          "internalType": "string",
          "name": "winnerName_",
          "type": "string"
        }
      ],
      "payable": false,
      "stateMutability": "view",
      "type": "function"
    }
  ],
  "bytecode": "0x60806040523480156200001157600080fd5b5060405162000c3a38038062000c3a8339818101604052620000379190810190620002a9565b33600160006101000a81548173ffffffffffffffffffffffffffffffffffffffff021916908373ffffffffffffffffffffffffffffffffffffffff16021790555060008090505b8151811015620001195760036040518060400160405280848481518110620000a257fe5b602002602001015181526020016000815250908060018154018082558091505090600182039060005260206000209060020201600090919290919091506000820151816000019080519060200190620000fd92919062000121565b506020820151816001015550505080806001019150506200007e565b5050620003a8565b828054600181600116156101000203166002900490600052602060002090601f016020900481019282601f106200016457805160ff191683800117855562000195565b8280016001018555821562000195579182015b828111156200019457825182559160200191906001019062000177565b5b509050620001a49190620001a8565b5090565b620001cd91905b80821115620001c9576000816000905550600101620001af565b5090565b90565b600082601f830112620001e257600080fd5b8151620001f9620001f3826200031c565b620002ee565b9150818183526020840193506020810190508360005b838110156200024357815186016200022888826200024d565b8452602084019350602083019250506001810190506200020f565b5050505092915050565b600082601f8301126200025f57600080fd5b815162000276620002708262000345565b620002ee565b915080825260208301602083018583830111156200029357600080fd5b620002a083828462000372565b50505092915050565b600060208284031215620002bc57600080fd5b600082015167ffffffffffffffff811115620002d757600080fd5b620002e584828501620001d0565b91505092915050565b6000604051905081810181811067ffffffffffffffff821117156200031257600080fd5b8060405250919050565b600067ffffffffffffffff8211156200033457600080fd5b602082029050602081019050919050565b600067ffffffffffffffff8211156200035d57600080fd5b601f19601f8301169050602081019050919050565b60005b838110156200039257808201518184015260208101905062000375565b83811115620003a2576000848401525b50505050565b61088280620003b86000396000f3fe608060405234801561001057600080fd5b50600436106100625760003560e01c8063013cf08b146100675780632e4176cf14610098578063609ff1bd146100b6578063a6385803146100d4578063c19d93fb146100f0578063e2ba53f01461010e575b600080fd5b610081600480360361007c919081019061057c565b61012c565b60405161008f92919061069c565b60405180910390f35b6100a06101f5565b6040516100ad9190610644565b60405180910390f35b6100be61021b565b6040516100cb91906106cc565b60405180910390f35b6100ee60048036036100e99190810190610528565b610292565b005b6100f8610342565b604051610105919061065f565b60405180910390f35b610116610355565b604051610123919061067a565b60405180910390f35b6003818154811061013957fe5b9060005260206000209060020201600091509050806000018054600181600116156101000203166002900480601f0160208091040260200160405190810160405280929190818152602001828054600181600116156101000203166002900480156101e55780601f106101ba576101008083540402835291602001916101e5565b820191906000526020600020905b8154815290600101906020018083116101c857829003601f168201915b5050505050908060010154905082565b600160009054906101000a900473ffffffffffffffffffffffffffffffffffffffff1681565b6000806000905060008090505b60038054905081101561028d57816003828154811061024357fe5b9060005260206000209060020201600101541115610280576003818154811061026857fe5b90600052602060002090600202016001015491508092505b8080600101915050610228565b505090565b600160008082825401925050819055506000600260003373ffffffffffffffffffffffffffffffffffffffff1673ffffffffffffffffffffffffffffffffffffffff16815260200190815260200160002090508181600001819055508281600101908051906020019061030692919061041a565b5042816002018190555060016003838154811061031f57fe5b906000526020600020906002020160010160008282540192505081905550505050565b600460009054906101000a900460ff1681565b6060600361036161021b565b8154811061036b57fe5b90600052602060002090600202016000018054600181600116156101000203166002900480601f0160208091040260200160405190810160405280929190818152602001828054600181600116156101000203166002900480156104105780601f106103e557610100808354040283529160200191610410565b820191906000526020600020905b8154815290600101906020018083116103f357829003601f168201915b5050505050905090565b828054600181600116156101000203166002900490600052602060002090601f016020900481019282601f1061045b57805160ff1916838001178555610489565b82800160010185558215610489579182015b8281111561048857825182559160200191906001019061046d565b5b509050610496919061049a565b5090565b6104bc91905b808211156104b85760008160009055506001016104a0565b5090565b90565b600082601f8301126104d057600080fd5b81356104e36104de82610714565b6106e7565b915080825260208301602083018583830111156104ff57600080fd5b61050a8382846107c8565b50505092915050565b60008135905061052281610828565b92915050565b6000806040838503121561053b57600080fd5b600083013567ffffffffffffffff81111561055557600080fd5b610561858286016104bf565b925050602061057285828601610513565b9150509250929050565b60006020828403121561058e57600080fd5b600061059c84828501610513565b91505092915050565b6105ae81610767565b82525050565b6105bd816107b6565b82525050565b60006105ce8261074b565b6105d88185610756565b93506105e88185602086016107d7565b6105f18161080a565b840191505092915050565b600061060782610740565b6106118185610756565b93506106218185602086016107d7565b61062a8161080a565b840191505092915050565b61063e816107ac565b82525050565b600060208201905061065960008301846105a5565b92915050565b600060208201905061067460008301846105b4565b92915050565b6000602082019050818103600083015261069481846105c3565b905092915050565b600060408201905081810360008301526106b681856105fc565b90506106c56020830184610635565b9392505050565b60006020820190506106e16000830184610635565b92915050565b6000604051905081810181811067ffffffffffffffff8211171561070a57600080fd5b8060405250919050565b600067ffffffffffffffff82111561072b57600080fd5b601f19601f8301169050602081019050919050565b600081519050919050565b600081519050919050565b600082825260208201905092915050565b60006107728261078c565b9050919050565b60008190506107878261081b565b919050565b600073ffffffffffffffffffffffffffffffffffffffff82169050919050565b6000819050919050565b60006107c182610779565b9050919050565b82818337600083830152505050565b60005b838110156107f55780820151818401526020810190506107da565b83811115610804576000848401525b50505050565b6000601f19601f8301169050919050565b6003811061082557fe5b50565b610831816107ac565b811461083c57600080fd5b5056fea365627a7a723158206202b71f5af87a6e50493c9a95816753a92ae372d6025cbc003e1fb44dc46aed6c6578706572696d656e74616cf564736f6c63430005100040",
  "source": "// SPDX-License-Identifier: MIT\npragma solidity >=0.5.16 <0.9.0;\npragma experimental ABIEncoderV2;\n// import \"@openzeppelin/contracts/token/ERC721/ERC721.sol\";\n\ncontract voting {\n  // State variables\n  uint256 totalVotes; // total votes received\n  address public chairperson;  // address of the contract deployer is chairperson\n  mapping (address => Voter) voters; // mapping of items for sale. So each skuID corresponds to a dictionary\n  Proposal[] public proposals; // initialise an empty array of proposals\n  \n  struct Voter {\n    // address voterAddress; // address of voter\n    uint vote; // the index of the thing voted for\n    // uint voteNumber; // number of votes that voter has given\n    string message; // message of the voter\n    uint timestamp; // timetamp of the vote\n  }\n\n  struct Proposal {\n    string name; // name of the proposal\n    uint voteCount; // number of accumulated votes\n  }\n\n  enum State {\n    Created, Voting, Ended\n  } State public state;\n\n\n  // Events\n// event itemAdded(uint _skuCount, string _productName);\n\n  // Modifiers\n// modifier enoughItems(uint _inventory) {\n//   require(_inventory>=1);\n//   _;\n// }\n  constructor(string[] memory proposalNames) public {  // constructor initialises once. \n    chairperson = msg.sender; // the person who deployed constract is the owner\n    \n    for (uint i = 0 ; i < proposalNames.length; i++) {\n      proposals.push(Proposal({\n        name: proposalNames[i],\n        voteCount:0\n      })); \n      }\n    }\n  \n\n  // Functions\n\n  // 1. Create the voting function\n  function vote(string memory _message, uint proposal) public {\n    totalVotes +=1; // increment total vote counts\n    // console.log(\"%s has voted!\", msg.sender); // create a console log indicating a vote event\n    Voter storage sender = voters[msg.sender]; // create new 'Voter' struct named sender within voters mapping\n    sender.vote = proposal; \n    sender.message = _message;  \n    sender.timestamp = block.timestamp;\n\n    proposals[proposal].voteCount +=1; \n  }\n\n  function winningProposal() public view returns (uint winningProposal_) {\n    uint winningVoteCount = 0;\n\n    for (uint p=0; p< proposals.length; p++) {\n      if (proposals[p].voteCount > winningVoteCount) {\n        winningVoteCount = proposals[p].voteCount;\n        winningProposal_ = p;\n      }\n    }\n  }\n\n\n  function winnerName() public view returns (string memory winnerName_) {\n    winnerName_ = proposals[winningProposal()].name;\n  }\n\n\n\n\n\n\n\n\n}\n  \n\n\n\n\n\n\n\n\n\n\n\n\n\n\n\n\n",
  "sourcePath": "/mnt/c/Users/Mason-PC/Documents/GitHub/blockchain-developer-final-project/contracts/voting.sol",
  "compiler": {
    "name": "solc",
    "version": "0.5.16+commit.9c3226ce.Emscripten.clang"
  },
  "schemaVersion": "3.4.3",
  "updatedAt": "2021-11-01T08:25:12.672Z",
  "devdoc": {
    "methods": {}
  },
  "userdoc": {
    "methods": {}
  }
}