{
  "contractName": "voting",
  "abi": [
    {
      "inputs": [
        {
          "internalType": "string[]",
          "name": "proposalNames",
          "type": "string[]"
        }
      ],
      "payable": false,
      "stateMutability": "nonpayable",
      "type": "constructor"
    },
    {
      "constant": true,
      "inputs": [],
      "name": "chairperson",
      "outputs": [
        {
          "internalType": "address",
          "name": "",
          "type": "address"
        }
      ],
      "payable": false,
      "stateMutability": "view",
      "type": "function"
    },
    {
      "constant": true,
      "inputs": [
        {
          "internalType": "uint256",
          "name": "",
          "type": "uint256"
        }
      ],
      "name": "proposals",
      "outputs": [
        {
          "internalType": "string",
          "name": "name",
          "type": "string"
        },
        {
          "internalType": "uint256",
          "name": "voteCount",
          "type": "uint256"
        }
      ],
      "payable": false,
      "stateMutability": "view",
      "type": "function"
    },
    {
      "constant": true,
      "inputs": [],
      "name": "state",
      "outputs": [
        {
          "internalType": "enum voting.State",
          "name": "",
          "type": "uint8"
        }
      ],
      "payable": false,
      "stateMutability": "view",
      "type": "function"
    },
    {
      "constant": false,
      "inputs": [
        {
          "internalType": "string",
          "name": "_message",
          "type": "string"
        },
        {
          "internalType": "uint256",
          "name": "proposal",
          "type": "uint256"
        }
      ],
      "name": "vote",
      "outputs": [],
      "payable": true,
      "stateMutability": "payable",
      "type": "function"
    },
    {
      "constant": true,
      "inputs": [],
      "name": "winningProposal",
      "outputs": [
        {
          "internalType": "uint256",
          "name": "winningProposal_",
          "type": "uint256"
        }
      ],
      "payable": false,
      "stateMutability": "view",
      "type": "function"
    },
    {
      "constant": true,
      "inputs": [],
      "name": "winnerName",
      "outputs": [
        {
          "internalType": "string",
          "name": "winnerName_",
          "type": "string"
        }
      ],
      "payable": false,
      "stateMutability": "view",
      "type": "function"
    },
    {
      "constant": true,
      "inputs": [],
      "name": "getTotalVotes",
      "outputs": [
        {
          "internalType": "uint256",
          "name": "",
          "type": "uint256"
        }
      ],
      "payable": false,
      "stateMutability": "view",
      "type": "function"
    }
  ],
  "bytecode": "0x60806040523480156200001157600080fd5b5060405162000d2b38038062000d2b8339818101604052620000379190810190620002a9565b33600160006101000a81548173ffffffffffffffffffffffffffffffffffffffff021916908373ffffffffffffffffffffffffffffffffffffffff16021790555060008090505b8151811015620001195760036040518060400160405280848481518110620000a257fe5b602002602001015181526020016000815250908060018154018082558091505090600182039060005260206000209060020201600090919290919091506000820151816000019080519060200190620000fd92919062000121565b506020820151816001015550505080806001019150506200007e565b5050620003a8565b828054600181600116156101000203166002900490600052602060002090601f016020900481019282601f106200016457805160ff191683800117855562000195565b8280016001018555821562000195579182015b828111156200019457825182559160200191906001019062000177565b5b509050620001a49190620001a8565b5090565b620001cd91905b80821115620001c9576000816000905550600101620001af565b5090565b90565b600082601f830112620001e257600080fd5b8151620001f9620001f3826200031c565b620002ee565b9150818183526020840193506020810190508360005b838110156200024357815186016200022888826200024d565b8452602084019350602083019250506001810190506200020f565b5050505092915050565b600082601f8301126200025f57600080fd5b815162000276620002708262000345565b620002ee565b915080825260208301602083018583830111156200029357600080fd5b620002a083828462000372565b50505092915050565b600060208284031215620002bc57600080fd5b600082015167ffffffffffffffff811115620002d757600080fd5b620002e584828501620001d0565b91505092915050565b6000604051905081810181811067ffffffffffffffff821117156200031257600080fd5b8060405250919050565b600067ffffffffffffffff8211156200033457600080fd5b602082029050602081019050919050565b600067ffffffffffffffff8211156200035d57600080fd5b601f19601f8301169050602081019050919050565b60005b838110156200039257808201518184015260208101905062000375565b83811115620003a2576000848401525b50505050565b61097380620003b86000396000f3fe6080604052600436106100705760003560e01c80639a0e7d661161004e5780639a0e7d6614610109578063a638580314610134578063c19d93fb14610150578063e2ba53f01461017b57610070565b8063013cf08b146100755780632e4176cf146100b3578063609ff1bd146100de575b600080fd5b34801561008157600080fd5b5061009c6004803603610097919081019061066d565b6101a6565b6040516100aa92919061078d565b60405180910390f35b3480156100bf57600080fd5b506100c861026f565b6040516100d59190610735565b60405180910390f35b3480156100ea57600080fd5b506100f3610295565b60405161010091906107bd565b60405180910390f35b34801561011557600080fd5b5061011e61030c565b60405161012b91906107bd565b60405180910390f35b61014e60048036036101499190810190610619565b610315565b005b34801561015c57600080fd5b50610165610433565b6040516101729190610750565b60405180910390f35b34801561018757600080fd5b50610190610446565b60405161019d919061076b565b60405180910390f35b600381815481106101b357fe5b9060005260206000209060020201600091509050806000018054600181600116156101000203166002900480601f01602080910402602001604051908101604052809291908181526020018280546001816001161561010002031660029004801561025f5780601f106102345761010080835404028352916020019161025f565b820191906000526020600020905b81548152906001019060200180831161024257829003601f168201915b5050505050908060010154905082565b600160009054906101000a900473ffffffffffffffffffffffffffffffffffffffff1681565b6000806000905060008090505b6003805490508110156103075781600382815481106102bd57fe5b90600052602060002090600202016001015411156102fa57600381815481106102e257fe5b90600052602060002090600202016001015491508092505b80806001019150506102a2565b505090565b60008054905090565b600160009054906101000a900473ffffffffffffffffffffffffffffffffffffffff1673ffffffffffffffffffffffffffffffffffffffff163373ffffffffffffffffffffffffffffffffffffffff16141561037057600080fd5b66038d7ea4c68000341461038357600080fd5b600160008082825401925050819055506000600260003373ffffffffffffffffffffffffffffffffffffffff1673ffffffffffffffffffffffffffffffffffffffff1681526020019081526020016000209050818160000181905550828160010190805190602001906103f792919061050b565b5042816002018190555060016003838154811061041057fe5b906000526020600020906002020160010160008282540192505081905550505050565b600460009054906101000a900460ff1681565b60606003610452610295565b8154811061045c57fe5b90600052602060002090600202016000018054600181600116156101000203166002900480601f0160208091040260200160405190810160405280929190818152602001828054600181600116156101000203166002900480156105015780601f106104d657610100808354040283529160200191610501565b820191906000526020600020905b8154815290600101906020018083116104e457829003601f168201915b5050505050905090565b828054600181600116156101000203166002900490600052602060002090601f016020900481019282601f1061054c57805160ff191683800117855561057a565b8280016001018555821561057a579182015b8281111561057957825182559160200191906001019061055e565b5b509050610587919061058b565b5090565b6105ad91905b808211156105a9576000816000905550600101610591565b5090565b90565b600082601f8301126105c157600080fd5b81356105d46105cf82610805565b6107d8565b915080825260208301602083018583830111156105f057600080fd5b6105fb8382846108b9565b50505092915050565b60008135905061061381610919565b92915050565b6000806040838503121561062c57600080fd5b600083013567ffffffffffffffff81111561064657600080fd5b610652858286016105b0565b925050602061066385828601610604565b9150509250929050565b60006020828403121561067f57600080fd5b600061068d84828501610604565b91505092915050565b61069f81610858565b82525050565b6106ae816108a7565b82525050565b60006106bf8261083c565b6106c98185610847565b93506106d98185602086016108c8565b6106e2816108fb565b840191505092915050565b60006106f882610831565b6107028185610847565b93506107128185602086016108c8565b61071b816108fb565b840191505092915050565b61072f8161089d565b82525050565b600060208201905061074a6000830184610696565b92915050565b600060208201905061076560008301846106a5565b92915050565b6000602082019050818103600083015261078581846106b4565b905092915050565b600060408201905081810360008301526107a781856106ed565b90506107b66020830184610726565b9392505050565b60006020820190506107d26000830184610726565b92915050565b6000604051905081810181811067ffffffffffffffff821117156107fb57600080fd5b8060405250919050565b600067ffffffffffffffff82111561081c57600080fd5b601f19601f8301169050602081019050919050565b600081519050919050565b600081519050919050565b600082825260208201905092915050565b60006108638261087d565b9050919050565b60008190506108788261090c565b919050565b600073ffffffffffffffffffffffffffffffffffffffff82169050919050565b6000819050919050565b60006108b28261086a565b9050919050565b82818337600083830152505050565b60005b838110156108e65780820151818401526020810190506108cb565b838111156108f5576000848401525b50505050565b6000601f19601f8301169050919050565b6003811061091657fe5b50565b6109228161089d565b811461092d57600080fd5b5056fea365627a7a72315820a1f4043fd32d445b3066b10b9b59279b9e9f90e68d1fd5d7a41b450711460b2c6c6578706572696d656e74616cf564736f6c63430005100040",
  "source": "// SPDX-License-Identifier: MIT\npragma solidity >=0.5.16 <0.9.0;\npragma experimental ABIEncoderV2;\n// import \"@openzeppelin/contracts/token/ERC721/ERC721.sol\";\n\ncontract voting {\n  // State variables\n  uint256 totalVotes; // total votes received\n  address public chairperson;  // address of the contract deployer is chairperson\n  mapping (address => Voter) voters; // mapping of items for sale. So each skuID corresponds to a dictionary\n  Proposal[] public proposals; // initialise an empty array of proposals\n  \n  struct Voter {\n    // address voterAddress; // address of voter\n    uint vote; // the index of the thing voted for\n    // uint voteNumber; // number of votes that voter has given\n    string message; // message of the voter\n    uint timestamp; // timetamp of the vote\n  }\n\n  struct Proposal {\n    string name; // name of the proposal\n    uint voteCount; // number of accumulated votes\n  }\n\n  enum State {\n    Created, Voting, Ended\n  } State public state;\n\n\n  // Events\n// event itemAdded(uint _skuCount, string _productName);\n\n  // Modifiers\nmodifier notOwner() {\n  require(msg.sender != chairperson);\n  _;\n}\n  constructor(string[] memory proposalNames) public {  // constructor initialises once. \n    chairperson = msg.sender; // the person who deployed constract is the owner\n    \n    for (uint i = 0 ; i < proposalNames.length; i++) {\n      proposals.push(Proposal({\n        name: proposalNames[i],\n        voteCount:0\n      })); \n      }\n    }\n  \n\n  // Functions\n\n  // 1. Create the voting function\n  function vote(string memory _message, uint proposal) public payable notOwner() {\n    require(msg.value == 1000000000000000);\n    totalVotes +=1; // increment total vote counts\n    // console.log(\"%s has voted!\", msg.sender); // create a console log indicating a vote event\n    Voter storage sender = voters[msg.sender]; // create new 'Voter' struct named sender within voters mapping\n    sender.vote = proposal; \n    sender.message = _message;  \n    sender.timestamp = block.timestamp;\n\n    proposals[proposal].voteCount +=1; \n  }\n\n// 2. Create a function for obtaining the index of the winning Proposal\n  function winningProposal() public view returns (uint winningProposal_) {\n    uint winningVoteCount = 0;\n\n    for (uint p=0; p< proposals.length; p++) {\n      if (proposals[p].voteCount > winningVoteCount) {\n        winningVoteCount = proposals[p].voteCount;\n        winningProposal_ = p;\n      }\n    }\n  }\n\n// 3. Create a function for obtaining the string name of the winning proposal\n  function winnerName() public view returns (string memory winnerName_) {\n    winnerName_ = proposals[winningProposal()].name;\n  }\n\n  // 4. Create a function for obtaining the total votes on the proposal\n  function getTotalVotes() public view returns (uint256) {\n    return totalVotes;\n  }\n\n\n\n\n\n\n\n\n\n\n}\n  \n\n\n\n\n\n\n\n\n\n\n\n\n\n\n\n\n",
  "sourcePath": "/mnt/c/Users/Mason-PC/Documents/GitHub/blockchain-developer-final-project/contracts/voting.sol",
  "compiler": {
    "name": "solc",
    "version": "0.5.16+commit.9c3226ce.Emscripten.clang"
  },
  "schemaVersion": "3.4.3",
  "updatedAt": "2021-11-01T16:08:34.528Z",
  "devdoc": {
    "methods": {}
  },
  "userdoc": {
    "methods": {}
  }
}